{
  "_format": "hh-sol-artifact-1",
  "contractName": "Voting",
  "sourceName": "contracts/Voting.sol",
  "abi": [
    {
      "inputs": [],
      "stateMutability": "nonpayable",
      "type": "constructor"
    },
    {
      "inputs": [
        {
          "internalType": "uint256",
          "name": "_index",
          "type": "uint256"
        }
      ],
      "name": "addCandidate",
      "outputs": [],
      "stateMutability": "nonpayable",
      "type": "function"
    },
    {
      "inputs": [
        {
          "internalType": "uint256",
          "name": "",
          "type": "uint256"
        }
      ],
      "name": "ballots",
      "outputs": [
        {
          "internalType": "uint256",
          "name": "id",
          "type": "uint256"
        },
        {
          "internalType": "string",
          "name": "varient",
          "type": "string"
        },
        {
          "internalType": "string",
          "name": "position",
          "type": "string"
        },
        {
          "internalType": "string",
          "name": "state",
          "type": "string"
        },
        {
          "internalType": "string",
          "name": "imageHash",
          "type": "string"
        },
        {
          "internalType": "string",
          "name": "status",
          "type": "string"
        },
        {
          "internalType": "string",
          "name": "end",
          "type": "string"
        }
      ],
      "stateMutability": "view",
      "type": "function"
    },
    {
      "inputs": [],
      "name": "candidateLogin",
      "outputs": [
        {
          "components": [
            {
              "internalType": "string",
              "name": "name",
              "type": "string"
            },
            {
              "internalType": "uint256",
              "name": "votes",
              "type": "uint256"
            },
            {
              "internalType": "string",
              "name": "hash",
              "type": "string"
            },
            {
              "internalType": "string",
              "name": "role",
              "type": "string"
            }
          ],
          "internalType": "struct Voting.Candidate",
          "name": "",
          "type": "tuple"
        }
      ],
      "stateMutability": "view",
      "type": "function"
    },
    {
      "inputs": [
        {
          "internalType": "string",
          "name": "_name",
          "type": "string"
        },
        {
          "internalType": "string",
          "name": "_hash",
          "type": "string"
        }
      ],
      "name": "candidateRegister",
      "outputs": [],
      "stateMutability": "payable",
      "type": "function"
    },
    {
      "inputs": [
        {
          "internalType": "address",
          "name": "",
          "type": "address"
        }
      ],
      "name": "candidates",
      "outputs": [
        {
          "internalType": "string",
          "name": "name",
          "type": "string"
        },
        {
          "internalType": "uint256",
          "name": "votes",
          "type": "uint256"
        },
        {
          "internalType": "string",
          "name": "hash",
          "type": "string"
        },
        {
          "internalType": "string",
          "name": "role",
          "type": "string"
        }
      ],
      "stateMutability": "view",
      "type": "function"
    },
    {
      "inputs": [
        {
          "internalType": "string",
          "name": "_varient",
          "type": "string"
        },
        {
          "internalType": "string",
          "name": "_position",
          "type": "string"
        },
        {
          "internalType": "string",
          "name": "_state",
          "type": "string"
        },
        {
          "internalType": "string",
          "name": "_hash",
          "type": "string"
        },
        {
          "internalType": "string",
          "name": "_status",
          "type": "string"
        },
        {
          "internalType": "string",
          "name": "_date",
          "type": "string"
        }
      ],
      "name": "createBallot",
      "outputs": [
        {
          "internalType": "uint256",
          "name": "",
          "type": "uint256"
        }
      ],
      "stateMutability": "nonpayable",
      "type": "function"
    },
    {
      "inputs": [],
      "name": "getBallots",
      "outputs": [
        {
          "components": [
            {
              "internalType": "uint256",
              "name": "id",
              "type": "uint256"
            },
            {
              "internalType": "string",
              "name": "varient",
              "type": "string"
            },
            {
              "internalType": "string",
              "name": "position",
              "type": "string"
            },
            {
              "internalType": "string",
              "name": "state",
              "type": "string"
            },
            {
              "internalType": "string",
              "name": "imageHash",
              "type": "string"
            },
            {
              "internalType": "string",
              "name": "status",
              "type": "string"
            },
            {
              "internalType": "address[]",
              "name": "c",
              "type": "address[]"
            },
            {
              "internalType": "string",
              "name": "end",
              "type": "string"
            }
          ],
          "internalType": "struct Voting.Ballot[]",
          "name": "",
          "type": "tuple[]"
        }
      ],
      "stateMutability": "view",
      "type": "function"
    },
    {
      "inputs": [
        {
          "internalType": "address",
          "name": "_add",
          "type": "address"
        }
      ],
      "name": "getCandidate",
      "outputs": [
        {
          "components": [
            {
              "internalType": "string",
              "name": "name",
              "type": "string"
            },
            {
              "internalType": "uint256",
              "name": "votes",
              "type": "uint256"
            },
            {
              "internalType": "string",
              "name": "hash",
              "type": "string"
            },
            {
              "internalType": "string",
              "name": "role",
              "type": "string"
            }
          ],
          "internalType": "struct Voting.Candidate",
          "name": "",
          "type": "tuple"
        }
      ],
      "stateMutability": "view",
      "type": "function"
    },
    {
      "inputs": [],
      "name": "getid",
      "outputs": [
        {
          "internalType": "uint256",
          "name": "",
          "type": "uint256"
        }
      ],
      "stateMutability": "view",
      "type": "function"
    },
    {
      "inputs": [],
      "name": "owner",
      "outputs": [
        {
          "internalType": "address",
          "name": "",
          "type": "address"
        }
      ],
      "stateMutability": "view",
      "type": "function"
    },
    {
      "inputs": [
        {
          "internalType": "address[]",
          "name": "arr",
          "type": "address[]"
        },
        {
          "internalType": "int256",
          "name": "left",
          "type": "int256"
        },
        {
          "internalType": "int256",
          "name": "right",
          "type": "int256"
        }
      ],
      "name": "quickSort",
      "outputs": [],
      "stateMutability": "nonpayable",
      "type": "function"
    },
    {
      "inputs": [
        {
          "internalType": "address[]",
          "name": "_adds",
          "type": "address[]"
        }
      ],
      "name": "result",
      "outputs": [
        {
          "internalType": "address[]",
          "name": "",
          "type": "address[]"
        }
      ],
      "stateMutability": "nonpayable",
      "type": "function"
    },
    {
      "inputs": [
        {
          "internalType": "address[]",
          "name": "data",
          "type": "address[]"
        }
      ],
      "name": "sort",
      "outputs": [
        {
          "internalType": "address[]",
          "name": "",
          "type": "address[]"
        }
      ],
      "stateMutability": "nonpayable",
      "type": "function"
    },
    {
      "inputs": [],
      "name": "userLogin",
      "outputs": [
        {
          "components": [
            {
              "internalType": "string",
              "name": "name",
              "type": "string"
            },
            {
              "internalType": "bool",
              "name": "voted",
              "type": "bool"
            },
            {
              "internalType": "string",
              "name": "role",
              "type": "string"
            }
          ],
          "internalType": "struct Voting.User",
          "name": "",
          "type": "tuple"
        }
      ],
      "stateMutability": "view",
      "type": "function"
    },
    {
      "inputs": [
        {
          "internalType": "string",
          "name": "_name",
          "type": "string"
        }
      ],
      "name": "userRegister",
      "outputs": [],
      "stateMutability": "payable",
      "type": "function"
    },
    {
      "inputs": [
        {
          "internalType": "address",
          "name": "",
          "type": "address"
        }
      ],
      "name": "users",
      "outputs": [
        {
          "internalType": "string",
          "name": "name",
          "type": "string"
        },
        {
          "internalType": "bool",
          "name": "voted",
          "type": "bool"
        },
        {
          "internalType": "string",
          "name": "role",
          "type": "string"
        }
      ],
      "stateMutability": "view",
      "type": "function"
    },
    {
      "inputs": [
        {
          "internalType": "address[]",
          "name": "_adds",
          "type": "address[]"
        }
      ],
      "name": "voteApproval",
      "outputs": [],
      "stateMutability": "nonpayable",
      "type": "function"
    },
    {
      "inputs": [
        {
          "internalType": "address[]",
          "name": "_adds",
          "type": "address[]"
        }
      ],
      "name": "voteRank",
      "outputs": [],
      "stateMutability": "nonpayable",
      "type": "function"
    },
    {
      "inputs": [
        {
          "internalType": "address",
          "name": "_add",
          "type": "address"
        }
      ],
      "name": "voteSimple",
      "outputs": [
        {
          "internalType": "uint256",
          "name": "",
          "type": "uint256"
        }
      ],
      "stateMutability": "nonpayable",
      "type": "function"
    }
  ],
  "bytecode": "0x608060405234801561001057600080fd5b50336000806101000a81548173ffffffffffffffffffffffffffffffffffffffff021916908373ffffffffffffffffffffffffffffffffffffffff160217905550613622806100606000396000f3fe6080604052600436106101145760003560e01c80639a271924116100a0578063de5567ce11610064578063de5567ce146103e7578063e844d09714610403578063e91224691461042c578063eb87c6dc14610469578063f513f38e1461049457610114565b80639a271924146102ee578063a87430ba14610319578063b7adcf1d14610358578063ba1e9d0f14610395578063c674f26e146103be57610114565b80635e6a0955116100e75780635e6a0955146101ed5780637eb84fa51461022a578063881d97dc146102675780638ab66a90146102835780638da5cb5b146102c357610114565b8063128424a7146101195780632151c0a2146101565780634790a62d1461017f5780635c632b38146101aa575b600080fd5b34801561012557600080fd5b50610140600480360381019061013b9190612514565b6104bf565b60405161014d919061261b565b60405180910390f35b34801561016257600080fd5b5061017d60048036038101906101789190612514565b6104e2565b005b34801561018b57600080fd5b506101946106ca565b6040516101a1919061272e565b60405180910390f35b3480156101b657600080fd5b506101d160048036038101906101cc9190612786565b610860565b6040516101e4979695949392919061280c565b60405180910390f35b3480156101f957600080fd5b50610214600480360381019061020f919061295a565b610be2565b6040516102219190612a8f565b60405180910390f35b34801561023657600080fd5b50610251600480360381019061024c9190612514565b610d1a565b60405161025e919061261b565b60405180910390f35b610281600480360381019061027c9190612aaa565b610d2e565b005b34801561028f57600080fd5b506102aa60048036038101906102a59190612af3565b610e18565b6040516102ba9493929190612b20565b60405180910390f35b3480156102cf57600080fd5b506102d8610fe0565b6040516102e59190612b89565b60405180910390f35b3480156102fa57600080fd5b50610303611004565b6040516103109190612c24565b60405180910390f35b34801561032557600080fd5b50610340600480360381019061033b9190612af3565b61121b565b60405161034f93929190612c55565b60405180910390f35b34801561036457600080fd5b5061037f600480360381019061037a9190612af3565b611362565b60405161038c9190612c24565b60405180910390f35b3480156103a157600080fd5b506103bc60048036038101906103b79190612514565b61157b565b005b3480156103ca57600080fd5b506103e560048036038101906103e09190612cd0565b611701565b005b61040160048036038101906103fc9190612d3f565b611ab2565b005b34801561040f57600080fd5b5061042a60048036038101906104259190612786565b611ba1565b005b34801561043857600080fd5b50610453600480360381019061044e9190612af3565b611c2a565b6040516104609190612a8f565b60405180910390f35b34801561047557600080fd5b5061047e611dbe565b60405161048b9190612fc2565b60405180910390f35b3480156104a057600080fd5b506104a9612222565b6040516104b69190612a8f565b60405180910390f35b60606104da826000600185516104d59190613013565b611701565b819050919050565b60001515600460003373ffffffffffffffffffffffffffffffffffffffff1673ffffffffffffffffffffffffffffffffffffffff16815260200190815260200160002060010160009054906101000a900460ff16151514610578576040517f08c379a000000000000000000000000000000000000000000000000000000000815260040161056f90613093565b60405180910390fd5b60005b815181101561066b578082516105919190613013565b600360008484815181106105a8576105a76130b3565b5b602002602001015173ffffffffffffffffffffffffffffffffffffffff1673ffffffffffffffffffffffffffffffffffffffff168152602001908152602001600020600101546105f891906130e2565b6003600084848151811061060f5761060e6130b3565b5b602002602001015173ffffffffffffffffffffffffffffffffffffffff1673ffffffffffffffffffffffffffffffffffffffff16815260200190815260200160002060010181905550808061066390613116565b91505061057b565b506001600460003373ffffffffffffffffffffffffffffffffffffffff1673ffffffffffffffffffffffffffffffffffffffff16815260200190815260200160002060010160006101000a81548160ff02191690831515021790555050565b6106d2612257565b600460003373ffffffffffffffffffffffffffffffffffffffff1673ffffffffffffffffffffffffffffffffffffffff16815260200190815260200160002060405180606001604052908160008201805461072c9061318d565b80601f01602080910402602001604051908101604052809291908181526020018280546107589061318d565b80156107a55780601f1061077a576101008083540402835291602001916107a5565b820191906000526020600020905b81548152906001019060200180831161078857829003601f168201915b505050505081526020016001820160009054906101000a900460ff161515151581526020016002820180546107d99061318d565b80601f01602080910402602001604051908101604052809291908181526020018280546108059061318d565b80156108525780601f1061082757610100808354040283529160200191610852565b820191906000526020600020905b81548152906001019060200180831161083557829003601f168201915b505050505081525050905090565b6001818154811061087057600080fd5b90600052602060002090600802016000915090508060000154908060010180546108999061318d565b80601f01602080910402602001604051908101604052809291908181526020018280546108c59061318d565b80156109125780601f106108e757610100808354040283529160200191610912565b820191906000526020600020905b8154815290600101906020018083116108f557829003601f168201915b5050505050908060020180546109279061318d565b80601f01602080910402602001604051908101604052809291908181526020018280546109539061318d565b80156109a05780601f10610975576101008083540402835291602001916109a0565b820191906000526020600020905b81548152906001019060200180831161098357829003601f168201915b5050505050908060030180546109b59061318d565b80601f01602080910402602001604051908101604052809291908181526020018280546109e19061318d565b8015610a2e5780601f10610a0357610100808354040283529160200191610a2e565b820191906000526020600020905b815481529060010190602001808311610a1157829003601f168201915b505050505090806004018054610a439061318d565b80601f0160208091040260200160405190810160405280929190818152602001828054610a6f9061318d565b8015610abc5780601f10610a9157610100808354040283529160200191610abc565b820191906000526020600020905b815481529060010190602001808311610a9f57829003601f168201915b505050505090806005018054610ad19061318d565b80601f0160208091040260200160405190810160405280929190818152602001828054610afd9061318d565b8015610b4a5780601f10610b1f57610100808354040283529160200191610b4a565b820191906000526020600020905b815481529060010190602001808311610b2d57829003601f168201915b505050505090806007018054610b5f9061318d565b80601f0160208091040260200160405190810160405280929190818152602001828054610b8b9061318d565b8015610bd85780601f10610bad57610100808354040283529160200191610bd8565b820191906000526020600020905b815481529060010190602001808311610bbb57829003601f168201915b5050505050905087565b600060606001604051806101000160405280610bfe6002612233565b81526020018a8152602001898152602001888152602001878152602001868152602001838152602001858152509080600181540180825580915050600190039060005260206000209060080201600090919091909150600082015181600001556020820151816001019081610c73919061336a565b506040820151816002019081610c89919061336a565b506060820151816003019081610c9f919061336a565b506080820151816004019081610cb5919061336a565b5060a0820151816005019081610ccb919061336a565b5060c0820151816006019080519060200190610ce892919061227a565b5060e0820151816007019081610cfe919061336a565b505050610d0b6002612241565b60019150509695505050505050565b6060610d25826104bf565b50819050919050565b600060405180606001604052808381526020016000151581526020016040518060400160405280600481526020017f7573657200000000000000000000000000000000000000000000000000000000815250815250905080600460003373ffffffffffffffffffffffffffffffffffffffff1673ffffffffffffffffffffffffffffffffffffffff1681526020019081526020016000206000820151816000019081610dda919061336a565b5060208201518160010160006101000a81548160ff0219169083151502179055506040820151816002019081610e10919061336a565b509050505050565b6003602052806000526040600020600091509050806000018054610e3b9061318d565b80601f0160208091040260200160405190810160405280929190818152602001828054610e679061318d565b8015610eb45780601f10610e8957610100808354040283529160200191610eb4565b820191906000526020600020905b815481529060010190602001808311610e9757829003601f168201915b505050505090806001015490806002018054610ecf9061318d565b80601f0160208091040260200160405190810160405280929190818152602001828054610efb9061318d565b8015610f485780601f10610f1d57610100808354040283529160200191610f48565b820191906000526020600020905b815481529060010190602001808311610f2b57829003601f168201915b505050505090806003018054610f5d9061318d565b80601f0160208091040260200160405190810160405280929190818152602001828054610f899061318d565b8015610fd65780601f10610fab57610100808354040283529160200191610fd6565b820191906000526020600020905b815481529060010190602001808311610fb957829003601f168201915b5050505050905084565b60008054906101000a900473ffffffffffffffffffffffffffffffffffffffff1681565b61100c612304565b600360003373ffffffffffffffffffffffffffffffffffffffff1673ffffffffffffffffffffffffffffffffffffffff1681526020019081526020016000206040518060800160405290816000820180546110669061318d565b80601f01602080910402602001604051908101604052809291908181526020018280546110929061318d565b80156110df5780601f106110b4576101008083540402835291602001916110df565b820191906000526020600020905b8154815290600101906020018083116110c257829003601f168201915b50505050508152602001600182015481526020016002820180546111029061318d565b80601f016020809104026020016040519081016040528092919081815260200182805461112e9061318d565b801561117b5780601f106111505761010080835404028352916020019161117b565b820191906000526020600020905b81548152906001019060200180831161115e57829003601f168201915b505050505081526020016003820180546111949061318d565b80601f01602080910402602001604051908101604052809291908181526020018280546111c09061318d565b801561120d5780601f106111e25761010080835404028352916020019161120d565b820191906000526020600020905b8154815290600101906020018083116111f057829003601f168201915b505050505081525050905090565b600460205280600052604060002060009150905080600001805461123e9061318d565b80601f016020809104026020016040519081016040528092919081815260200182805461126a9061318d565b80156112b75780601f1061128c576101008083540402835291602001916112b7565b820191906000526020600020905b81548152906001019060200180831161129a57829003601f168201915b5050505050908060010160009054906101000a900460ff16908060020180546112df9061318d565b80601f016020809104026020016040519081016040528092919081815260200182805461130b9061318d565b80156113585780601f1061132d57610100808354040283529160200191611358565b820191906000526020600020905b81548152906001019060200180831161133b57829003601f168201915b5050505050905083565b61136a612304565b600360008373ffffffffffffffffffffffffffffffffffffffff1673ffffffffffffffffffffffffffffffffffffffff1681526020019081526020016000206040518060800160405290816000820180546113c49061318d565b80601f01602080910402602001604051908101604052809291908181526020018280546113f09061318d565b801561143d5780601f106114125761010080835404028352916020019161143d565b820191906000526020600020905b81548152906001019060200180831161142057829003601f168201915b50505050508152602001600182015481526020016002820180546114609061318d565b80601f016020809104026020016040519081016040528092919081815260200182805461148c9061318d565b80156114d95780601f106114ae576101008083540402835291602001916114d9565b820191906000526020600020905b8154815290600101906020018083116114bc57829003601f168201915b505050505081526020016003820180546114f29061318d565b80601f016020809104026020016040519081016040528092919081815260200182805461151e9061318d565b801561156b5780601f106115405761010080835404028352916020019161156b565b820191906000526020600020905b81548152906001019060200180831161154e57829003601f168201915b5050505050815250509050919050565b60001515600460003373ffffffffffffffffffffffffffffffffffffffff1673ffffffffffffffffffffffffffffffffffffffff16815260200190815260200160002060010160009054906101000a900460ff16151514611611576040517f08c379a000000000000000000000000000000000000000000000000000000000815260040161160890613093565b60405180910390fd5b60005b81518110156116a25760036000838381518110611634576116336130b3565b5b602002602001015173ffffffffffffffffffffffffffffffffffffffff1673ffffffffffffffffffffffffffffffffffffffff168152602001908152602001600020600101600081548092919061168a90613116565b9190505550808061169a90613116565b915050611614565b506001600460003373ffffffffffffffffffffffffffffffffffffffff1673ffffffffffffffffffffffffffffffffffffffff16815260200190815260200160002060010160006101000a81548160ff02191690831515021790555050565b60008290506000829050808203611719575050611aad565b6000856002868661172a919061343c565b61173491906134ae565b8661173f9190613518565b815181106117505761174f6130b3565b5b602002602001015190505b818313611a81575b600360008273ffffffffffffffffffffffffffffffffffffffff1673ffffffffffffffffffffffffffffffffffffffff16815260200190815260200160002060010154600360008886815181106117bd576117bc6130b3565b5b602002602001015173ffffffffffffffffffffffffffffffffffffffff1673ffffffffffffffffffffffffffffffffffffffff16815260200190815260200160002060010154101561181c5782806118149061355c565b935050611763565b5b60036000878481518110611834576118336130b3565b5b602002602001015173ffffffffffffffffffffffffffffffffffffffff1673ffffffffffffffffffffffffffffffffffffffff16815260200190815260200160002060010154600360008373ffffffffffffffffffffffffffffffffffffffff1673ffffffffffffffffffffffffffffffffffffffff1681526020019081526020016000206001015410156118d65781806118ce906135a4565b92505061181d565b818313611a7c57600360008784815181106118f4576118f36130b3565b5b602002602001015173ffffffffffffffffffffffffffffffffffffffff1673ffffffffffffffffffffffffffffffffffffffff1681526020019081526020016000206001015460036000888681518110611951576119506130b3565b5b602002602001015173ffffffffffffffffffffffffffffffffffffffff1673ffffffffffffffffffffffffffffffffffffffff16815260200190815260200160002060010154600360008987815181106119ae576119ad6130b3565b5b602002602001015173ffffffffffffffffffffffffffffffffffffffff1673ffffffffffffffffffffffffffffffffffffffff1681526020019081526020016000206001016000600360008b8881518110611a0c57611a0b6130b3565b5b602002602001015173ffffffffffffffffffffffffffffffffffffffff1673ffffffffffffffffffffffffffffffffffffffff16815260200190815260200160002060010160008491905055839190505550508280611a6a9061355c565b9350508180611a78906135a4565b9250505b61175b565b81851215611a9557611a94868684611701565b5b83831215611aa957611aa8868486611701565b5b5050505b505050565b60006040518060800160405280848152602001600081526020018381526020016040518060400160405280600981526020017f63616e6469646174650000000000000000000000000000000000000000000000815250815250905080600360003373ffffffffffffffffffffffffffffffffffffffff1673ffffffffffffffffffffffffffffffffffffffff1681526020019081526020016000206000820151816000019081611b62919061336a565b50602082015181600101556040820151816002019081611b82919061336a565b506060820151816003019081611b98919061336a565b50905050505050565b60018181548110611bb557611bb46130b3565b5b9060005260206000209060080201600601339080600181540180825580915050600190039060005260206000200160009091909190916101000a81548173ffffffffffffffffffffffffffffffffffffffff021916908373ffffffffffffffffffffffffffffffffffffffff16021790555050565b6000801515600460003373ffffffffffffffffffffffffffffffffffffffff1673ffffffffffffffffffffffffffffffffffffffff16815260200190815260200160002060010160009054906101000a900460ff16151514611cc1576040517f08c379a0000000000000000000000000000000000000000000000000000000008152600401611cb890613093565b60405180910390fd5b600360008373ffffffffffffffffffffffffffffffffffffffff1673ffffffffffffffffffffffffffffffffffffffff1681526020019081526020016000206001016000815480929190611d1490613116565b91905055506001600460003373ffffffffffffffffffffffffffffffffffffffff1673ffffffffffffffffffffffffffffffffffffffff16815260200190815260200160002060010160006101000a81548160ff021916908315150217905550600360008373ffffffffffffffffffffffffffffffffffffffff1673ffffffffffffffffffffffffffffffffffffffff168152602001908152602001600020600101549050919050565b60606001805480602002602001604051908101604052809291908181526020016000905b8282101561221957838290600052602060002090600802016040518061010001604052908160008201548152602001600182018054611e209061318d565b80601f0160208091040260200160405190810160405280929190818152602001828054611e4c9061318d565b8015611e995780601f10611e6e57610100808354040283529160200191611e99565b820191906000526020600020905b815481529060010190602001808311611e7c57829003601f168201915b50505050508152602001600282018054611eb29061318d565b80601f0160208091040260200160405190810160405280929190818152602001828054611ede9061318d565b8015611f2b5780601f10611f0057610100808354040283529160200191611f2b565b820191906000526020600020905b815481529060010190602001808311611f0e57829003601f168201915b50505050508152602001600382018054611f449061318d565b80601f0160208091040260200160405190810160405280929190818152602001828054611f709061318d565b8015611fbd5780601f10611f9257610100808354040283529160200191611fbd565b820191906000526020600020905b815481529060010190602001808311611fa057829003601f168201915b50505050508152602001600482018054611fd69061318d565b80601f01602080910402602001604051908101604052809291908181526020018280546120029061318d565b801561204f5780601f106120245761010080835404028352916020019161204f565b820191906000526020600020905b81548152906001019060200180831161203257829003601f168201915b505050505081526020016005820180546120689061318d565b80601f01602080910402602001604051908101604052809291908181526020018280546120949061318d565b80156120e15780601f106120b6576101008083540402835291602001916120e1565b820191906000526020600020905b8154815290600101906020018083116120c457829003601f168201915b505050505081526020016006820180548060200260200160405190810160405280929190818152602001828054801561216f57602002820191906000526020600020905b8160009054906101000a900473ffffffffffffffffffffffffffffffffffffffff1673ffffffffffffffffffffffffffffffffffffffff1681526020019060010190808311612125575b505050505081526020016007820180546121889061318d565b80601f01602080910402602001604051908101604052809291908181526020018280546121b49061318d565b80156122015780601f106121d657610100808354040283529160200191612201565b820191906000526020600020905b8154815290600101906020018083116121e457829003601f168201915b50505050508152505081526020019060010190611de2565b50505050905090565b600061222e6002612233565b905090565b600081600001549050919050565b6001816000016000828254019250508190555050565b604051806060016040528060608152602001600015158152602001606081525090565b8280548282559060005260206000209081019282156122f3579160200282015b828111156122f25782518260006101000a81548173ffffffffffffffffffffffffffffffffffffffff021916908373ffffffffffffffffffffffffffffffffffffffff1602179055509160200191906001019061229a565b5b509050612300919061232c565b5090565b6040518060800160405280606081526020016000815260200160608152602001606081525090565b5b8082111561234557600081600090555060010161232d565b5090565b6000604051905090565b600080fd5b600080fd5b600080fd5b6000601f19601f8301169050919050565b7f4e487b7100000000000000000000000000000000000000000000000000000000600052604160045260246000fd5b6123ab82612362565b810181811067ffffffffffffffff821117156123ca576123c9612373565b5b80604052505050565b60006123dd612349565b90506123e982826123a2565b919050565b600067ffffffffffffffff82111561240957612408612373565b5b602082029050602081019050919050565b600080fd5b600073ffffffffffffffffffffffffffffffffffffffff82169050919050565b600061244a8261241f565b9050919050565b61245a8161243f565b811461246557600080fd5b50565b60008135905061247781612451565b92915050565b600061249061248b846123ee565b6123d3565b905080838252602082019050602084028301858111156124b3576124b261241a565b5b835b818110156124dc57806124c88882612468565b8452602084019350506020810190506124b5565b5050509392505050565b600082601f8301126124fb576124fa61235d565b5b813561250b84826020860161247d565b91505092915050565b60006020828403121561252a57612529612353565b5b600082013567ffffffffffffffff81111561254857612547612358565b5b612554848285016124e6565b91505092915050565b600081519050919050565b600082825260208201905092915050565b6000819050602082019050919050565b6125928161243f565b82525050565b60006125a48383612589565b60208301905092915050565b6000602082019050919050565b60006125c88261255d565b6125d28185612568565b93506125dd83612579565b8060005b8381101561260e5781516125f58882612598565b9750612600836125b0565b9250506001810190506125e1565b5085935050505092915050565b6000602082019050818103600083015261263581846125bd565b905092915050565b600081519050919050565b600082825260208201905092915050565b60005b8381101561267757808201518184015260208101905061265c565b60008484015250505050565b600061268e8261263d565b6126988185612648565b93506126a8818560208601612659565b6126b181612362565b840191505092915050565b60008115159050919050565b6126d1816126bc565b82525050565b600060608301600083015184820360008601526126f48282612683565b915050602083015161270960208601826126c8565b50604083015184820360408601526127218282612683565b9150508091505092915050565b6000602082019050818103600083015261274881846126d7565b905092915050565b6000819050919050565b61276381612750565b811461276e57600080fd5b50565b6000813590506127808161275a565b92915050565b60006020828403121561279c5761279b612353565b5b60006127aa84828501612771565b91505092915050565b6127bc81612750565b82525050565b600082825260208201905092915050565b60006127de8261263d565b6127e881856127c2565b93506127f8818560208601612659565b61280181612362565b840191505092915050565b600060e082019050612821600083018a6127b3565b818103602083015261283381896127d3565b9050818103604083015261284781886127d3565b9050818103606083015261285b81876127d3565b9050818103608083015261286f81866127d3565b905081810360a083015261288381856127d3565b905081810360c083015261289781846127d3565b905098975050505050505050565b600080fd5b600067ffffffffffffffff8211156128c5576128c4612373565b5b6128ce82612362565b9050602081019050919050565b82818337600083830152505050565b60006128fd6128f8846128aa565b6123d3565b905082815260208101848484011115612919576129186128a5565b5b6129248482856128db565b509392505050565b600082601f8301126129415761294061235d565b5b81356129518482602086016128ea565b91505092915050565b60008060008060008060c0878903121561297757612976612353565b5b600087013567ffffffffffffffff81111561299557612994612358565b5b6129a189828a0161292c565b965050602087013567ffffffffffffffff8111156129c2576129c1612358565b5b6129ce89828a0161292c565b955050604087013567ffffffffffffffff8111156129ef576129ee612358565b5b6129fb89828a0161292c565b945050606087013567ffffffffffffffff811115612a1c57612a1b612358565b5b612a2889828a0161292c565b935050608087013567ffffffffffffffff811115612a4957612a48612358565b5b612a5589828a0161292c565b92505060a087013567ffffffffffffffff811115612a7657612a75612358565b5b612a8289828a0161292c565b9150509295509295509295565b6000602082019050612aa460008301846127b3565b92915050565b600060208284031215612ac057612abf612353565b5b600082013567ffffffffffffffff811115612ade57612add612358565b5b612aea8482850161292c565b91505092915050565b600060208284031215612b0957612b08612353565b5b6000612b1784828501612468565b91505092915050565b60006080820190508181036000830152612b3a81876127d3565b9050612b4960208301866127b3565b8181036040830152612b5b81856127d3565b90508181036060830152612b6f81846127d3565b905095945050505050565b612b838161243f565b82525050565b6000602082019050612b9e6000830184612b7a565b92915050565b612bad81612750565b82525050565b60006080830160008301518482036000860152612bd08282612683565b9150506020830151612be56020860182612ba4565b5060408301518482036040860152612bfd8282612683565b91505060608301518482036060860152612c178282612683565b9150508091505092915050565b60006020820190508181036000830152612c3e8184612bb3565b905092915050565b612c4f816126bc565b82525050565b60006060820190508181036000830152612c6f81866127d3565b9050612c7e6020830185612c46565b8181036040830152612c9081846127d3565b9050949350505050565b6000819050919050565b612cad81612c9a565b8114612cb857600080fd5b50565b600081359050612cca81612ca4565b92915050565b600080600060608486031215612ce957612ce8612353565b5b600084013567ffffffffffffffff811115612d0757612d06612358565b5b612d13868287016124e6565b9350506020612d2486828701612cbb565b9250506040612d3586828701612cbb565b9150509250925092565b60008060408385031215612d5657612d55612353565b5b600083013567ffffffffffffffff811115612d7457612d73612358565b5b612d808582860161292c565b925050602083013567ffffffffffffffff811115612da157612da0612358565b5b612dad8582860161292c565b9150509250929050565b600081519050919050565b600082825260208201905092915050565b6000819050602082019050919050565b600082825260208201905092915050565b6000612dff8261255d565b612e098185612de3565b9350612e1483612579565b8060005b83811015612e45578151612e2c8882612598565b9750612e37836125b0565b925050600181019050612e18565b5085935050505092915050565b600061010083016000830151612e6b6000860182612ba4565b5060208301518482036020860152612e838282612683565b91505060408301518482036040860152612e9d8282612683565b91505060608301518482036060860152612eb78282612683565b91505060808301518482036080860152612ed18282612683565b91505060a083015184820360a0860152612eeb8282612683565b91505060c083015184820360c0860152612f058282612df4565b91505060e083015184820360e0860152612f1f8282612683565b9150508091505092915050565b6000612f388383612e52565b905092915050565b6000602082019050919050565b6000612f5882612db7565b612f628185612dc2565b935083602082028501612f7485612dd3565b8060005b85811015612fb05784840389528151612f918582612f2c565b9450612f9c83612f40565b925060208a01995050600181019050612f78565b50829750879550505050505092915050565b60006020820190508181036000830152612fdc8184612f4d565b905092915050565b7f4e487b7100000000000000000000000000000000000000000000000000000000600052601160045260246000fd5b600061301e82612750565b915061302983612750565b925082820390508181111561304157613040612fe4565b5b92915050565b7f416c726561647920766f74656400000000000000000000000000000000000000600082015250565b600061307d600d836127c2565b915061308882613047565b602082019050919050565b600060208201905081810360008301526130ac81613070565b9050919050565b7f4e487b7100000000000000000000000000000000000000000000000000000000600052603260045260246000fd5b60006130ed82612750565b91506130f883612750565b92508282019050808211156131105761310f612fe4565b5b92915050565b600061312182612750565b91507fffffffffffffffffffffffffffffffffffffffffffffffffffffffffffffffff820361315357613152612fe4565b5b600182019050919050565b7f4e487b7100000000000000000000000000000000000000000000000000000000600052602260045260246000fd5b600060028204905060018216806131a557607f821691505b6020821081036131b8576131b761315e565b5b50919050565b60008190508160005260206000209050919050565b60006020601f8301049050919050565b600082821b905092915050565b6000600883026132207fffffffffffffffffffffffffffffffffffffffffffffffffffffffffffffffff826131e3565b61322a86836131e3565b95508019841693508086168417925050509392505050565b6000819050919050565b600061326761326261325d84612750565b613242565b612750565b9050919050565b6000819050919050565b6132818361324c565b61329561328d8261326e565b8484546131f0565b825550505050565b600090565b6132aa61329d565b6132b5818484613278565b505050565b5b818110156132d9576132ce6000826132a2565b6001810190506132bb565b5050565b601f82111561331e576132ef816131be565b6132f8846131d3565b81016020851015613307578190505b61331b613313856131d3565b8301826132ba565b50505b505050565b600082821c905092915050565b600061334160001984600802613323565b1980831691505092915050565b600061335a8383613330565b9150826002028217905092915050565b6133738261263d565b67ffffffffffffffff81111561338c5761338b612373565b5b613396825461318d565b6133a18282856132dd565b600060209050601f8311600181146133d457600084156133c2578287015190505b6133cc858261334e565b865550613434565b601f1984166133e2866131be565b60005b8281101561340a578489015182556001820191506020850194506020810190506133e5565b868310156134275784890151613423601f891682613330565b8355505b6001600288020188555050505b505050505050565b600061344782612c9a565b915061345283612c9a565b925082820390508181126000841216828213600085121516171561347957613478612fe4565b5b92915050565b7f4e487b7100000000000000000000000000000000000000000000000000000000600052601260045260246000fd5b60006134b982612c9a565b91506134c483612c9a565b9250826134d4576134d361347f565b5b600160000383147f80000000000000000000000000000000000000000000000000000000000000008314161561350d5761350c612fe4565b5b828205905092915050565b600061352382612c9a565b915061352e83612c9a565b92508282019050828112156000831216838212600084121516171561355657613555612fe4565b5b92915050565b600061356782612c9a565b91507f7fffffffffffffffffffffffffffffffffffffffffffffffffffffffffffffff820361359957613598612fe4565b5b600182019050919050565b60006135af82612c9a565b91507f800000000000000000000000000000000000000000000000000000000000000082036135e1576135e0612fe4565b5b60018203905091905056fea2646970667358221220f10499b38d7254a050dce92436e6c2db76b94921840bc63c5d9b2d375589d09a64736f6c63430008120033",
  "linkReferences": {},
  "deployedLinkReferences": {}
}