{
  "_format": "hh-sol-artifact-1",
  "contractName": "Voting",
  "sourceName": "contracts/Voting.sol",
  "abi": [
    {
      "inputs": [],
      "stateMutability": "nonpayable",
      "type": "constructor"
    },
    {
      "inputs": [
        {
          "internalType": "uint256",
          "name": "_index",
          "type": "uint256"
        },
        {
          "internalType": "address",
          "name": "candidate",
          "type": "address"
        }
      ],
      "name": "addCandidate",
      "outputs": [],
      "stateMutability": "nonpayable",
      "type": "function"
    },
    {
      "inputs": [
        {
          "internalType": "uint256",
          "name": "",
          "type": "uint256"
        }
      ],
      "name": "ballots",
      "outputs": [
        {
          "internalType": "uint256",
          "name": "id",
          "type": "uint256"
        },
        {
          "internalType": "string",
          "name": "varient",
          "type": "string"
        },
        {
          "internalType": "string",
          "name": "position",
          "type": "string"
        },
        {
          "internalType": "string",
          "name": "state",
          "type": "string"
        },
        {
          "internalType": "string",
          "name": "imageHash",
          "type": "string"
        },
        {
          "internalType": "string",
          "name": "status",
          "type": "string"
        },
        {
          "internalType": "string",
          "name": "end",
          "type": "string"
        }
      ],
      "stateMutability": "view",
      "type": "function"
    },
    {
      "inputs": [
        {
          "internalType": "string",
          "name": "_name",
          "type": "string"
        },
        {
          "internalType": "string",
          "name": "_hash",
          "type": "string"
        }
      ],
      "name": "candidateRegister",
      "outputs": [],
      "stateMutability": "payable",
      "type": "function"
    },
    {
      "inputs": [
        {
          "internalType": "address",
          "name": "",
          "type": "address"
        }
      ],
      "name": "candidates",
      "outputs": [
        {
          "internalType": "string",
          "name": "name",
          "type": "string"
        },
        {
          "internalType": "uint256",
          "name": "votes",
          "type": "uint256"
        },
        {
          "internalType": "string",
          "name": "hash",
          "type": "string"
        }
      ],
      "stateMutability": "view",
      "type": "function"
    },
    {
      "inputs": [
        {
          "internalType": "string",
          "name": "_varient",
          "type": "string"
        },
        {
          "internalType": "string",
          "name": "_position",
          "type": "string"
        },
        {
          "internalType": "string",
          "name": "_state",
          "type": "string"
        },
        {
          "internalType": "string",
          "name": "_hash",
          "type": "string"
        },
        {
          "internalType": "string",
          "name": "_status",
          "type": "string"
        },
        {
          "internalType": "string",
          "name": "_date",
          "type": "string"
        }
      ],
      "name": "createBallot",
      "outputs": [
        {
          "internalType": "uint256",
          "name": "",
          "type": "uint256"
        }
      ],
      "stateMutability": "nonpayable",
      "type": "function"
    },
    {
      "inputs": [],
      "name": "getBallots",
      "outputs": [
        {
          "components": [
            {
              "internalType": "uint256",
              "name": "id",
              "type": "uint256"
            },
            {
              "internalType": "string",
              "name": "varient",
              "type": "string"
            },
            {
              "internalType": "string",
              "name": "position",
              "type": "string"
            },
            {
              "internalType": "string",
              "name": "state",
              "type": "string"
            },
            {
              "internalType": "string",
              "name": "imageHash",
              "type": "string"
            },
            {
              "internalType": "string",
              "name": "status",
              "type": "string"
            },
            {
              "internalType": "address[]",
              "name": "c",
              "type": "address[]"
            },
            {
              "internalType": "string",
              "name": "end",
              "type": "string"
            }
          ],
          "internalType": "struct Voting.Ballot[]",
          "name": "",
          "type": "tuple[]"
        }
      ],
      "stateMutability": "view",
      "type": "function"
    },
    {
      "inputs": [
        {
          "internalType": "address",
          "name": "_add",
          "type": "address"
        }
      ],
      "name": "getCandidate",
      "outputs": [
        {
          "components": [
            {
              "internalType": "string",
              "name": "name",
              "type": "string"
            },
            {
              "internalType": "uint256",
              "name": "votes",
              "type": "uint256"
            },
            {
              "internalType": "string",
              "name": "hash",
              "type": "string"
            }
          ],
          "internalType": "struct Voting.Candidate",
          "name": "",
          "type": "tuple"
        }
      ],
      "stateMutability": "view",
      "type": "function"
    },
    {
      "inputs": [],
      "name": "getid",
      "outputs": [
        {
          "internalType": "uint256",
          "name": "",
          "type": "uint256"
        }
      ],
      "stateMutability": "view",
      "type": "function"
    },
    {
      "inputs": [],
      "name": "owner",
      "outputs": [
        {
          "internalType": "address",
          "name": "",
          "type": "address"
        }
      ],
      "stateMutability": "view",
      "type": "function"
    },
    {
      "inputs": [
        {
          "internalType": "address[]",
          "name": "arr",
          "type": "address[]"
        },
        {
          "internalType": "int256",
          "name": "left",
          "type": "int256"
        },
        {
          "internalType": "int256",
          "name": "right",
          "type": "int256"
        }
      ],
      "name": "quickSort",
      "outputs": [],
      "stateMutability": "nonpayable",
      "type": "function"
    },
    {
      "inputs": [
        {
          "internalType": "address[]",
          "name": "_adds",
          "type": "address[]"
        }
      ],
      "name": "result",
      "outputs": [
        {
          "internalType": "address[]",
          "name": "",
          "type": "address[]"
        }
      ],
      "stateMutability": "nonpayable",
      "type": "function"
    },
    {
      "inputs": [
        {
          "internalType": "address[]",
          "name": "data",
          "type": "address[]"
        }
      ],
      "name": "sort",
      "outputs": [
        {
          "internalType": "address[]",
          "name": "",
          "type": "address[]"
        }
      ],
      "stateMutability": "nonpayable",
      "type": "function"
    },
    {
      "inputs": [
        {
          "internalType": "string",
          "name": "_name",
          "type": "string"
        }
      ],
      "name": "userRegister",
      "outputs": [],
      "stateMutability": "payable",
      "type": "function"
    },
    {
      "inputs": [
        {
          "internalType": "address",
          "name": "",
          "type": "address"
        }
      ],
      "name": "users",
      "outputs": [
        {
          "internalType": "string",
          "name": "name",
          "type": "string"
        },
        {
          "internalType": "bool",
          "name": "voted",
          "type": "bool"
        }
      ],
      "stateMutability": "view",
      "type": "function"
    },
    {
      "inputs": [
        {
          "internalType": "address[]",
          "name": "_adds",
          "type": "address[]"
        }
      ],
      "name": "voteApproval",
      "outputs": [],
      "stateMutability": "nonpayable",
      "type": "function"
    },
    {
      "inputs": [
        {
          "internalType": "address[]",
          "name": "_adds",
          "type": "address[]"
        }
      ],
      "name": "voteRank",
      "outputs": [],
      "stateMutability": "nonpayable",
      "type": "function"
    },
    {
      "inputs": [
        {
          "internalType": "address",
          "name": "_add",
          "type": "address"
        }
      ],
      "name": "voteSimple",
      "outputs": [
        {
          "internalType": "uint256",
          "name": "",
          "type": "uint256"
        }
      ],
      "stateMutability": "nonpayable",
      "type": "function"
    }
  ],
  "bytecode": "0x608060405234801561001057600080fd5b50336000806101000a81548173ffffffffffffffffffffffffffffffffffffffff021916908373ffffffffffffffffffffffffffffffffffffffff160217905550612eec806100606000396000f3fe6080604052600436106100fe5760003560e01c80638da5cb5b11610095578063c674f26e11610064578063c674f26e14610379578063de5567ce146103a2578063e9122469146103be578063eb87c6dc146103fb578063f513f38e14610426576100fe565b80638da5cb5b146102aa578063a87430ba146102d5578063b7adcf1d14610313578063ba1e9d0f14610350576100fe565b80635e6a0955116100d15780635e6a0955146101d55780637eb84fa514610212578063881d97dc1461024f5780638ab66a901461026b576100fe565b8063128424a7146101035780632151c0a21461014057806333c57ccd146101695780635c632b3814610192575b600080fd5b34801561010f57600080fd5b5061012a60048036038101906101259190611dfe565b610451565b6040516101379190611f05565b60405180910390f35b34801561014c57600080fd5b5061016760048036038101906101629190611dfe565b610474565b005b34801561017557600080fd5b50610190600480360381019061018b9190611f5d565b610601565b005b34801561019e57600080fd5b506101b960048036038101906101b49190611f9d565b61068b565b6040516101cc9796959493929190612058565b60405180910390f35b3480156101e157600080fd5b506101fc60048036038101906101f791906121a6565b610a0d565b60405161020991906122db565b60405180910390f35b34801561021e57600080fd5b5061023960048036038101906102349190611dfe565b610bd4565b6040516102469190611f05565b60405180910390f35b610269600480360381019061026491906122f6565b610be8565b005b34801561027757600080fd5b50610292600480360381019061028d919061233f565b610c81565b6040516102a19392919061236c565b60405180910390f35b3480156102b657600080fd5b506102bf610dbb565b6040516102cc91906123c0565b60405180910390f35b3480156102e157600080fd5b506102fc60048036038101906102f7919061233f565b610ddf565b60405161030a9291906123f6565b60405180910390f35b34801561031f57600080fd5b5061033a6004803603810190610335919061233f565b610e98565b60405161034791906124d6565b60405180910390f35b34801561035c57600080fd5b5061037760048036038101906103729190611dfe565b61101f565b005b34801561038557600080fd5b506103a0600480360381019061039b919061252e565b61114a565b005b6103bc60048036038101906103b7919061259d565b6114fb565b005b3480156103ca57600080fd5b506103e560048036038101906103e0919061233f565b611599565b6040516103f291906122db565b60405180910390f35b34801561040757600080fd5b506104106116d2565b60405161041d9190612820565b60405180910390f35b34801561043257600080fd5b5061043b611b36565b60405161044891906122db565b60405180910390f35b606061046c826000600185516104679190612871565b61114a565b819050919050565b60001515600460003373ffffffffffffffffffffffffffffffffffffffff1673ffffffffffffffffffffffffffffffffffffffff16815260200190815260200160002060010160009054906101000a900460ff1615151461050a576040517f08c379a0000000000000000000000000000000000000000000000000000000008152600401610501906128f1565b60405180910390fd5b60005b81518110156105fd578082516105239190612871565b6003600084848151811061053a57610539612911565b5b602002602001015173ffffffffffffffffffffffffffffffffffffffff1673ffffffffffffffffffffffffffffffffffffffff1681526020019081526020016000206001015461058a9190612940565b600360008484815181106105a1576105a0612911565b5b602002602001015173ffffffffffffffffffffffffffffffffffffffff1673ffffffffffffffffffffffffffffffffffffffff1681526020019081526020016000206001018190555080806105f590612974565b91505061050d565b5050565b6001828154811061061557610614612911565b5b9060005260206000209060080201600601819080600181540180825580915050600190039060005260206000200160009091909190916101000a81548173ffffffffffffffffffffffffffffffffffffffff021916908373ffffffffffffffffffffffffffffffffffffffff1602179055505050565b6001818154811061069b57600080fd5b90600052602060002090600802016000915090508060000154908060010180546106c4906129eb565b80601f01602080910402602001604051908101604052809291908181526020018280546106f0906129eb565b801561073d5780601f106107125761010080835404028352916020019161073d565b820191906000526020600020905b81548152906001019060200180831161072057829003601f168201915b505050505090806002018054610752906129eb565b80601f016020809104026020016040519081016040528092919081815260200182805461077e906129eb565b80156107cb5780601f106107a0576101008083540402835291602001916107cb565b820191906000526020600020905b8154815290600101906020018083116107ae57829003601f168201915b5050505050908060030180546107e0906129eb565b80601f016020809104026020016040519081016040528092919081815260200182805461080c906129eb565b80156108595780601f1061082e57610100808354040283529160200191610859565b820191906000526020600020905b81548152906001019060200180831161083c57829003601f168201915b50505050509080600401805461086e906129eb565b80601f016020809104026020016040519081016040528092919081815260200182805461089a906129eb565b80156108e75780601f106108bc576101008083540402835291602001916108e7565b820191906000526020600020905b8154815290600101906020018083116108ca57829003601f168201915b5050505050908060050180546108fc906129eb565b80601f0160208091040260200160405190810160405280929190818152602001828054610928906129eb565b80156109755780601f1061094a57610100808354040283529160200191610975565b820191906000526020600020905b81548152906001019060200180831161095857829003601f168201915b50505050509080600701805461098a906129eb565b80601f01602080910402602001604051908101604052809291908181526020018280546109b6906129eb565b8015610a035780601f106109d857610100808354040283529160200191610a03565b820191906000526020600020905b8154815290600101906020018083116109e657829003601f168201915b5050505050905087565b60008060009054906101000a900473ffffffffffffffffffffffffffffffffffffffff1673ffffffffffffffffffffffffffffffffffffffff163373ffffffffffffffffffffffffffffffffffffffff1614610a9e576040517f08c379a0000000000000000000000000000000000000000000000000000000008152600401610a9590612a68565b60405180910390fd5b60606001604051806101000160405280610ab86002611b47565b81526020018a8152602001898152602001888152602001878152602001868152602001838152602001858152509080600181540180825580915050600190039060005260206000209060080201600090919091909150600082015181600001556020820151816001019081610b2d9190612c34565b506040820151816002019081610b439190612c34565b506060820151816003019081610b599190612c34565b506080820151816004019081610b6f9190612c34565b5060a0820151816005019081610b859190612c34565b5060c0820151816006019080519060200190610ba2929190611b6b565b5060e0820151816007019081610bb89190612c34565b505050610bc56002611b55565b60019150509695505050505050565b6060610bdf82610451565b50819050919050565b6000604051806040016040528083815260200160001515815250905080600460003373ffffffffffffffffffffffffffffffffffffffff1673ffffffffffffffffffffffffffffffffffffffff1681526020019081526020016000206000820151816000019081610c599190612c34565b5060208201518160010160006101000a81548160ff0219169083151502179055509050505050565b6003602052806000526040600020600091509050806000018054610ca4906129eb565b80601f0160208091040260200160405190810160405280929190818152602001828054610cd0906129eb565b8015610d1d5780601f10610cf257610100808354040283529160200191610d1d565b820191906000526020600020905b815481529060010190602001808311610d0057829003601f168201915b505050505090806001015490806002018054610d38906129eb565b80601f0160208091040260200160405190810160405280929190818152602001828054610d64906129eb565b8015610db15780601f10610d8657610100808354040283529160200191610db1565b820191906000526020600020905b815481529060010190602001808311610d9457829003601f168201915b5050505050905083565b60008054906101000a900473ffffffffffffffffffffffffffffffffffffffff1681565b6004602052806000526040600020600091509050806000018054610e02906129eb565b80601f0160208091040260200160405190810160405280929190818152602001828054610e2e906129eb565b8015610e7b5780601f10610e5057610100808354040283529160200191610e7b565b820191906000526020600020905b815481529060010190602001808311610e5e57829003601f168201915b5050505050908060010160009054906101000a900460ff16905082565b610ea0611bf5565b600360008373ffffffffffffffffffffffffffffffffffffffff1673ffffffffffffffffffffffffffffffffffffffff168152602001908152602001600020604051806060016040529081600082018054610efa906129eb565b80601f0160208091040260200160405190810160405280929190818152602001828054610f26906129eb565b8015610f735780601f10610f4857610100808354040283529160200191610f73565b820191906000526020600020905b815481529060010190602001808311610f5657829003601f168201915b5050505050815260200160018201548152602001600282018054610f96906129eb565b80601f0160208091040260200160405190810160405280929190818152602001828054610fc2906129eb565b801561100f5780601f10610fe45761010080835404028352916020019161100f565b820191906000526020600020905b815481529060010190602001808311610ff257829003601f168201915b5050505050815250509050919050565b60001515600460003373ffffffffffffffffffffffffffffffffffffffff1673ffffffffffffffffffffffffffffffffffffffff16815260200190815260200160002060010160009054906101000a900460ff161515146110b5576040517f08c379a00000000000000000000000000000000000000000000000000000000081526004016110ac906128f1565b60405180910390fd5b60005b815181101561114657600360008383815181106110d8576110d7612911565b5b602002602001015173ffffffffffffffffffffffffffffffffffffffff1673ffffffffffffffffffffffffffffffffffffffff168152602001908152602001600020600101600081548092919061112e90612974565b9190505550808061113e90612974565b9150506110b8565b5050565b600082905060008290508082036111625750506114f6565b600085600286866111739190612d06565b61117d9190612d78565b866111889190612de2565b8151811061119957611198612911565b5b602002602001015190505b8183136114ca575b600360008273ffffffffffffffffffffffffffffffffffffffff1673ffffffffffffffffffffffffffffffffffffffff168152602001908152602001600020600101546003600088868151811061120657611205612911565b5b602002602001015173ffffffffffffffffffffffffffffffffffffffff1673ffffffffffffffffffffffffffffffffffffffff16815260200190815260200160002060010154101561126557828061125d90612e26565b9350506111ac565b5b6003600087848151811061127d5761127c612911565b5b602002602001015173ffffffffffffffffffffffffffffffffffffffff1673ffffffffffffffffffffffffffffffffffffffff16815260200190815260200160002060010154600360008373ffffffffffffffffffffffffffffffffffffffff1673ffffffffffffffffffffffffffffffffffffffff16815260200190815260200160002060010154101561131f57818061131790612e6e565b925050611266565b8183136114c5576003600087848151811061133d5761133c612911565b5b602002602001015173ffffffffffffffffffffffffffffffffffffffff1673ffffffffffffffffffffffffffffffffffffffff168152602001908152602001600020600101546003600088868151811061139a57611399612911565b5b602002602001015173ffffffffffffffffffffffffffffffffffffffff1673ffffffffffffffffffffffffffffffffffffffff16815260200190815260200160002060010154600360008987815181106113f7576113f6612911565b5b602002602001015173ffffffffffffffffffffffffffffffffffffffff1673ffffffffffffffffffffffffffffffffffffffff1681526020019081526020016000206001016000600360008b888151811061145557611454612911565b5b602002602001015173ffffffffffffffffffffffffffffffffffffffff1673ffffffffffffffffffffffffffffffffffffffff168152602001908152602001600020600101600084919050558391905055505082806114b390612e26565b93505081806114c190612e6e565b9250505b6111a4565b818512156114de576114dd86868461114a565b5b838312156114f2576114f186848661114a565b5b5050505b505050565b600060405180606001604052808481526020016000815260200183815250905080600360003373ffffffffffffffffffffffffffffffffffffffff1673ffffffffffffffffffffffffffffffffffffffff16815260200190815260200160002060008201518160000190816115709190612c34565b506020820151816001015560408201518160020190816115909190612c34565b50905050505050565b6000801515600460003373ffffffffffffffffffffffffffffffffffffffff1673ffffffffffffffffffffffffffffffffffffffff16815260200190815260200160002060010160009054906101000a900460ff16151514611630576040517f08c379a0000000000000000000000000000000000000000000000000000000008152600401611627906128f1565b60405180910390fd5b600360008373ffffffffffffffffffffffffffffffffffffffff1673ffffffffffffffffffffffffffffffffffffffff168152602001908152602001600020600101600081548092919061168390612974565b9190505550600360008373ffffffffffffffffffffffffffffffffffffffff1673ffffffffffffffffffffffffffffffffffffffff168152602001908152602001600020600101549050919050565b60606001805480602002602001604051908101604052809291908181526020016000905b82821015611b2d57838290600052602060002090600802016040518061010001604052908160008201548152602001600182018054611734906129eb565b80601f0160208091040260200160405190810160405280929190818152602001828054611760906129eb565b80156117ad5780601f10611782576101008083540402835291602001916117ad565b820191906000526020600020905b81548152906001019060200180831161179057829003601f168201915b505050505081526020016002820180546117c6906129eb565b80601f01602080910402602001604051908101604052809291908181526020018280546117f2906129eb565b801561183f5780601f106118145761010080835404028352916020019161183f565b820191906000526020600020905b81548152906001019060200180831161182257829003601f168201915b50505050508152602001600382018054611858906129eb565b80601f0160208091040260200160405190810160405280929190818152602001828054611884906129eb565b80156118d15780601f106118a6576101008083540402835291602001916118d1565b820191906000526020600020905b8154815290600101906020018083116118b457829003601f168201915b505050505081526020016004820180546118ea906129eb565b80601f0160208091040260200160405190810160405280929190818152602001828054611916906129eb565b80156119635780601f1061193857610100808354040283529160200191611963565b820191906000526020600020905b81548152906001019060200180831161194657829003601f168201915b5050505050815260200160058201805461197c906129eb565b80601f01602080910402602001604051908101604052809291908181526020018280546119a8906129eb565b80156119f55780601f106119ca576101008083540402835291602001916119f5565b820191906000526020600020905b8154815290600101906020018083116119d857829003601f168201915b5050505050815260200160068201805480602002602001604051908101604052809291908181526020018280548015611a8357602002820191906000526020600020905b8160009054906101000a900473ffffffffffffffffffffffffffffffffffffffff1673ffffffffffffffffffffffffffffffffffffffff1681526020019060010190808311611a39575b50505050508152602001600782018054611a9c906129eb565b80601f0160208091040260200160405190810160405280929190818152602001828054611ac8906129eb565b8015611b155780601f10611aea57610100808354040283529160200191611b15565b820191906000526020600020905b815481529060010190602001808311611af857829003601f168201915b505050505081525050815260200190600101906116f6565b50505050905090565b6000611b426002611b47565b905090565b600081600001549050919050565b6001816000016000828254019250508190555050565b828054828255906000526020600020908101928215611be4579160200282015b82811115611be35782518260006101000a81548173ffffffffffffffffffffffffffffffffffffffff021916908373ffffffffffffffffffffffffffffffffffffffff16021790555091602001919060010190611b8b565b5b509050611bf19190611c16565b5090565b60405180606001604052806060815260200160008152602001606081525090565b5b80821115611c2f576000816000905550600101611c17565b5090565b6000604051905090565b600080fd5b600080fd5b600080fd5b6000601f19601f8301169050919050565b7f4e487b7100000000000000000000000000000000000000000000000000000000600052604160045260246000fd5b611c9582611c4c565b810181811067ffffffffffffffff82111715611cb457611cb3611c5d565b5b80604052505050565b6000611cc7611c33565b9050611cd38282611c8c565b919050565b600067ffffffffffffffff821115611cf357611cf2611c5d565b5b602082029050602081019050919050565b600080fd5b600073ffffffffffffffffffffffffffffffffffffffff82169050919050565b6000611d3482611d09565b9050919050565b611d4481611d29565b8114611d4f57600080fd5b50565b600081359050611d6181611d3b565b92915050565b6000611d7a611d7584611cd8565b611cbd565b90508083825260208201905060208402830185811115611d9d57611d9c611d04565b5b835b81811015611dc65780611db28882611d52565b845260208401935050602081019050611d9f565b5050509392505050565b600082601f830112611de557611de4611c47565b5b8135611df5848260208601611d67565b91505092915050565b600060208284031215611e1457611e13611c3d565b5b600082013567ffffffffffffffff811115611e3257611e31611c42565b5b611e3e84828501611dd0565b91505092915050565b600081519050919050565b600082825260208201905092915050565b6000819050602082019050919050565b611e7c81611d29565b82525050565b6000611e8e8383611e73565b60208301905092915050565b6000602082019050919050565b6000611eb282611e47565b611ebc8185611e52565b9350611ec783611e63565b8060005b83811015611ef8578151611edf8882611e82565b9750611eea83611e9a565b925050600181019050611ecb565b5085935050505092915050565b60006020820190508181036000830152611f1f8184611ea7565b905092915050565b6000819050919050565b611f3a81611f27565b8114611f4557600080fd5b50565b600081359050611f5781611f31565b92915050565b60008060408385031215611f7457611f73611c3d565b5b6000611f8285828601611f48565b9250506020611f9385828601611d52565b9150509250929050565b600060208284031215611fb357611fb2611c3d565b5b6000611fc184828501611f48565b91505092915050565b611fd381611f27565b82525050565b600081519050919050565b600082825260208201905092915050565b60005b83811015612013578082015181840152602081019050611ff8565b60008484015250505050565b600061202a82611fd9565b6120348185611fe4565b9350612044818560208601611ff5565b61204d81611c4c565b840191505092915050565b600060e08201905061206d600083018a611fca565b818103602083015261207f818961201f565b90508181036040830152612093818861201f565b905081810360608301526120a7818761201f565b905081810360808301526120bb818661201f565b905081810360a08301526120cf818561201f565b905081810360c08301526120e3818461201f565b905098975050505050505050565b600080fd5b600067ffffffffffffffff82111561211157612110611c5d565b5b61211a82611c4c565b9050602081019050919050565b82818337600083830152505050565b6000612149612144846120f6565b611cbd565b905082815260208101848484011115612165576121646120f1565b5b612170848285612127565b509392505050565b600082601f83011261218d5761218c611c47565b5b813561219d848260208601612136565b91505092915050565b60008060008060008060c087890312156121c3576121c2611c3d565b5b600087013567ffffffffffffffff8111156121e1576121e0611c42565b5b6121ed89828a01612178565b965050602087013567ffffffffffffffff81111561220e5761220d611c42565b5b61221a89828a01612178565b955050604087013567ffffffffffffffff81111561223b5761223a611c42565b5b61224789828a01612178565b945050606087013567ffffffffffffffff81111561226857612267611c42565b5b61227489828a01612178565b935050608087013567ffffffffffffffff81111561229557612294611c42565b5b6122a189828a01612178565b92505060a087013567ffffffffffffffff8111156122c2576122c1611c42565b5b6122ce89828a01612178565b9150509295509295509295565b60006020820190506122f06000830184611fca565b92915050565b60006020828403121561230c5761230b611c3d565b5b600082013567ffffffffffffffff81111561232a57612329611c42565b5b61233684828501612178565b91505092915050565b60006020828403121561235557612354611c3d565b5b600061236384828501611d52565b91505092915050565b60006060820190508181036000830152612386818661201f565b90506123956020830185611fca565b81810360408301526123a7818461201f565b9050949350505050565b6123ba81611d29565b82525050565b60006020820190506123d560008301846123b1565b92915050565b60008115159050919050565b6123f0816123db565b82525050565b60006040820190508181036000830152612410818561201f565b905061241f60208301846123e7565b9392505050565b600082825260208201905092915050565b600061244282611fd9565b61244c8185612426565b935061245c818560208601611ff5565b61246581611c4c565b840191505092915050565b61247981611f27565b82525050565b6000606083016000830151848203600086015261249c8282612437565b91505060208301516124b16020860182612470565b50604083015184820360408601526124c98282612437565b9150508091505092915050565b600060208201905081810360008301526124f0818461247f565b905092915050565b6000819050919050565b61250b816124f8565b811461251657600080fd5b50565b60008135905061252881612502565b92915050565b60008060006060848603121561254757612546611c3d565b5b600084013567ffffffffffffffff81111561256557612564611c42565b5b61257186828701611dd0565b935050602061258286828701612519565b925050604061259386828701612519565b9150509250925092565b600080604083850312156125b4576125b3611c3d565b5b600083013567ffffffffffffffff8111156125d2576125d1611c42565b5b6125de85828601612178565b925050602083013567ffffffffffffffff8111156125ff576125fe611c42565b5b61260b85828601612178565b9150509250929050565b600081519050919050565b600082825260208201905092915050565b6000819050602082019050919050565b600082825260208201905092915050565b600061265d82611e47565b6126678185612641565b935061267283611e63565b8060005b838110156126a357815161268a8882611e82565b975061269583611e9a565b925050600181019050612676565b5085935050505092915050565b6000610100830160008301516126c96000860182612470565b50602083015184820360208601526126e18282612437565b915050604083015184820360408601526126fb8282612437565b915050606083015184820360608601526127158282612437565b9150506080830151848203608086015261272f8282612437565b91505060a083015184820360a08601526127498282612437565b91505060c083015184820360c08601526127638282612652565b91505060e083015184820360e086015261277d8282612437565b9150508091505092915050565b600061279683836126b0565b905092915050565b6000602082019050919050565b60006127b682612615565b6127c08185612620565b9350836020820285016127d285612631565b8060005b8581101561280e57848403895281516127ef858261278a565b94506127fa8361279e565b925060208a019950506001810190506127d6565b50829750879550505050505092915050565b6000602082019050818103600083015261283a81846127ab565b905092915050565b7f4e487b7100000000000000000000000000000000000000000000000000000000600052601160045260246000fd5b600061287c82611f27565b915061288783611f27565b925082820390508181111561289f5761289e612842565b5b92915050565b7f416c726561647920766f74656400000000000000000000000000000000000000600082015250565b60006128db600d83611fe4565b91506128e6826128a5565b602082019050919050565b6000602082019050818103600083015261290a816128ce565b9050919050565b7f4e487b7100000000000000000000000000000000000000000000000000000000600052603260045260246000fd5b600061294b82611f27565b915061295683611f27565b925082820190508082111561296e5761296d612842565b5b92915050565b600061297f82611f27565b91507fffffffffffffffffffffffffffffffffffffffffffffffffffffffffffffffff82036129b1576129b0612842565b5b600182019050919050565b7f4e487b7100000000000000000000000000000000000000000000000000000000600052602260045260246000fd5b60006002820490506001821680612a0357607f821691505b602082108103612a1657612a156129bc565b5b50919050565b7f4e6f7420746865206368616972706572736f6e00000000000000000000000000600082015250565b6000612a52601383611fe4565b9150612a5d82612a1c565b602082019050919050565b60006020820190508181036000830152612a8181612a45565b9050919050565b60008190508160005260206000209050919050565b60006020601f8301049050919050565b600082821b905092915050565b600060088302612aea7fffffffffffffffffffffffffffffffffffffffffffffffffffffffffffffffff82612aad565b612af48683612aad565b95508019841693508086168417925050509392505050565b6000819050919050565b6000612b31612b2c612b2784611f27565b612b0c565b611f27565b9050919050565b6000819050919050565b612b4b83612b16565b612b5f612b5782612b38565b848454612aba565b825550505050565b600090565b612b74612b67565b612b7f818484612b42565b505050565b5b81811015612ba357612b98600082612b6c565b600181019050612b85565b5050565b601f821115612be857612bb981612a88565b612bc284612a9d565b81016020851015612bd1578190505b612be5612bdd85612a9d565b830182612b84565b50505b505050565b600082821c905092915050565b6000612c0b60001984600802612bed565b1980831691505092915050565b6000612c248383612bfa565b9150826002028217905092915050565b612c3d82611fd9565b67ffffffffffffffff811115612c5657612c55611c5d565b5b612c6082546129eb565b612c6b828285612ba7565b600060209050601f831160018114612c9e5760008415612c8c578287015190505b612c968582612c18565b865550612cfe565b601f198416612cac86612a88565b60005b82811015612cd457848901518255600182019150602085019450602081019050612caf565b86831015612cf15784890151612ced601f891682612bfa565b8355505b6001600288020188555050505b505050505050565b6000612d11826124f8565b9150612d1c836124f8565b9250828203905081811260008412168282136000851215161715612d4357612d42612842565b5b92915050565b7f4e487b7100000000000000000000000000000000000000000000000000000000600052601260045260246000fd5b6000612d83826124f8565b9150612d8e836124f8565b925082612d9e57612d9d612d49565b5b600160000383147f800000000000000000000000000000000000000000000000000000000000000083141615612dd757612dd6612842565b5b828205905092915050565b6000612ded826124f8565b9150612df8836124f8565b925082820190508281121560008312168382126000841215161715612e2057612e1f612842565b5b92915050565b6000612e31826124f8565b91507f7fffffffffffffffffffffffffffffffffffffffffffffffffffffffffffffff8203612e6357612e62612842565b5b600182019050919050565b6000612e79826124f8565b91507f80000000000000000000000000000000000000000000000000000000000000008203612eab57612eaa612842565b5b60018203905091905056fea264697066735822122087f90e6a34f780c3f2900fce94f500ce81a11437d96f61cf013f9a2d3a5c11b464736f6c63430008120033",
  "linkReferences": {},
  "deployedLinkReferences": {}
}