{
  "_format": "hh-sol-artifact-1",
  "contractName": "Voting",
  "sourceName": "contracts/Voting.sol",
  "abi": [
    {
      "inputs": [],
      "stateMutability": "nonpayable",
      "type": "constructor"
    },
    {
      "inputs": [
        {
          "internalType": "uint256",
          "name": "_index",
          "type": "uint256"
        },
        {
          "internalType": "address",
          "name": "candidate",
          "type": "address"
        }
      ],
      "name": "addCandidate",
      "outputs": [],
      "stateMutability": "nonpayable",
      "type": "function"
    },
    {
      "inputs": [
        {
          "internalType": "uint256",
          "name": "",
          "type": "uint256"
        }
      ],
      "name": "ballots",
      "outputs": [
        {
          "internalType": "uint256",
          "name": "id",
          "type": "uint256"
        },
        {
          "internalType": "string",
          "name": "varient",
          "type": "string"
        },
        {
          "internalType": "string",
          "name": "position",
          "type": "string"
        },
        {
          "internalType": "string",
          "name": "state",
          "type": "string"
        },
        {
          "internalType": "string",
          "name": "imageHash",
          "type": "string"
        },
        {
          "internalType": "string",
          "name": "status",
          "type": "string"
        },
        {
          "internalType": "string",
          "name": "end",
          "type": "string"
        }
      ],
      "stateMutability": "view",
      "type": "function"
    },
    {
      "inputs": [],
      "name": "candidateLogin",
      "outputs": [
        {
          "components": [
            {
              "internalType": "string",
              "name": "name",
              "type": "string"
            },
            {
              "internalType": "uint256",
              "name": "votes",
              "type": "uint256"
            },
            {
              "internalType": "string",
              "name": "hash",
              "type": "string"
            },
            {
              "internalType": "string",
              "name": "role",
              "type": "string"
            }
          ],
          "internalType": "struct Voting.Candidate",
          "name": "",
          "type": "tuple"
        }
      ],
      "stateMutability": "view",
      "type": "function"
    },
    {
      "inputs": [
        {
          "internalType": "string",
          "name": "_name",
          "type": "string"
        },
        {
          "internalType": "string",
          "name": "_hash",
          "type": "string"
        }
      ],
      "name": "candidateRegister",
      "outputs": [],
      "stateMutability": "payable",
      "type": "function"
    },
    {
      "inputs": [
        {
          "internalType": "address",
          "name": "",
          "type": "address"
        }
      ],
      "name": "candidates",
      "outputs": [
        {
          "internalType": "string",
          "name": "name",
          "type": "string"
        },
        {
          "internalType": "uint256",
          "name": "votes",
          "type": "uint256"
        },
        {
          "internalType": "string",
          "name": "hash",
          "type": "string"
        },
        {
          "internalType": "string",
          "name": "role",
          "type": "string"
        }
      ],
      "stateMutability": "view",
      "type": "function"
    },
    {
      "inputs": [
        {
          "internalType": "string",
          "name": "_varient",
          "type": "string"
        },
        {
          "internalType": "string",
          "name": "_position",
          "type": "string"
        },
        {
          "internalType": "string",
          "name": "_state",
          "type": "string"
        },
        {
          "internalType": "string",
          "name": "_hash",
          "type": "string"
        },
        {
          "internalType": "string",
          "name": "_status",
          "type": "string"
        },
        {
          "internalType": "string",
          "name": "_date",
          "type": "string"
        }
      ],
      "name": "createBallot",
      "outputs": [
        {
          "internalType": "uint256",
          "name": "",
          "type": "uint256"
        }
      ],
      "stateMutability": "nonpayable",
      "type": "function"
    },
    {
      "inputs": [],
      "name": "getBallots",
      "outputs": [
        {
          "components": [
            {
              "internalType": "uint256",
              "name": "id",
              "type": "uint256"
            },
            {
              "internalType": "string",
              "name": "varient",
              "type": "string"
            },
            {
              "internalType": "string",
              "name": "position",
              "type": "string"
            },
            {
              "internalType": "string",
              "name": "state",
              "type": "string"
            },
            {
              "internalType": "string",
              "name": "imageHash",
              "type": "string"
            },
            {
              "internalType": "string",
              "name": "status",
              "type": "string"
            },
            {
              "internalType": "address[]",
              "name": "c",
              "type": "address[]"
            },
            {
              "internalType": "string",
              "name": "end",
              "type": "string"
            }
          ],
          "internalType": "struct Voting.Ballot[]",
          "name": "",
          "type": "tuple[]"
        }
      ],
      "stateMutability": "view",
      "type": "function"
    },
    {
      "inputs": [
        {
          "internalType": "address",
          "name": "_add",
          "type": "address"
        }
      ],
      "name": "getCandidate",
      "outputs": [
        {
          "components": [
            {
              "internalType": "string",
              "name": "name",
              "type": "string"
            },
            {
              "internalType": "uint256",
              "name": "votes",
              "type": "uint256"
            },
            {
              "internalType": "string",
              "name": "hash",
              "type": "string"
            },
            {
              "internalType": "string",
              "name": "role",
              "type": "string"
            }
          ],
          "internalType": "struct Voting.Candidate",
          "name": "",
          "type": "tuple"
        }
      ],
      "stateMutability": "view",
      "type": "function"
    },
    {
      "inputs": [],
      "name": "getid",
      "outputs": [
        {
          "internalType": "uint256",
          "name": "",
          "type": "uint256"
        }
      ],
      "stateMutability": "view",
      "type": "function"
    },
    {
      "inputs": [],
      "name": "owner",
      "outputs": [
        {
          "internalType": "address",
          "name": "",
          "type": "address"
        }
      ],
      "stateMutability": "view",
      "type": "function"
    },
    {
      "inputs": [
        {
          "internalType": "address[]",
          "name": "arr",
          "type": "address[]"
        },
        {
          "internalType": "int256",
          "name": "left",
          "type": "int256"
        },
        {
          "internalType": "int256",
          "name": "right",
          "type": "int256"
        }
      ],
      "name": "quickSort",
      "outputs": [],
      "stateMutability": "nonpayable",
      "type": "function"
    },
    {
      "inputs": [
        {
          "internalType": "address[]",
          "name": "_adds",
          "type": "address[]"
        }
      ],
      "name": "result",
      "outputs": [
        {
          "internalType": "address[]",
          "name": "",
          "type": "address[]"
        }
      ],
      "stateMutability": "nonpayable",
      "type": "function"
    },
    {
      "inputs": [
        {
          "internalType": "address[]",
          "name": "data",
          "type": "address[]"
        }
      ],
      "name": "sort",
      "outputs": [
        {
          "internalType": "address[]",
          "name": "",
          "type": "address[]"
        }
      ],
      "stateMutability": "nonpayable",
      "type": "function"
    },
    {
      "inputs": [],
      "name": "userLogin",
      "outputs": [
        {
          "components": [
            {
              "internalType": "string",
              "name": "name",
              "type": "string"
            },
            {
              "internalType": "bool",
              "name": "voted",
              "type": "bool"
            },
            {
              "internalType": "string",
              "name": "role",
              "type": "string"
            }
          ],
          "internalType": "struct Voting.User",
          "name": "",
          "type": "tuple"
        }
      ],
      "stateMutability": "view",
      "type": "function"
    },
    {
      "inputs": [
        {
          "internalType": "string",
          "name": "_name",
          "type": "string"
        }
      ],
      "name": "userRegister",
      "outputs": [],
      "stateMutability": "payable",
      "type": "function"
    },
    {
      "inputs": [
        {
          "internalType": "address",
          "name": "",
          "type": "address"
        }
      ],
      "name": "users",
      "outputs": [
        {
          "internalType": "string",
          "name": "name",
          "type": "string"
        },
        {
          "internalType": "bool",
          "name": "voted",
          "type": "bool"
        },
        {
          "internalType": "string",
          "name": "role",
          "type": "string"
        }
      ],
      "stateMutability": "view",
      "type": "function"
    },
    {
      "inputs": [
        {
          "internalType": "address[]",
          "name": "_adds",
          "type": "address[]"
        }
      ],
      "name": "voteApproval",
      "outputs": [],
      "stateMutability": "nonpayable",
      "type": "function"
    },
    {
      "inputs": [
        {
          "internalType": "address[]",
          "name": "_adds",
          "type": "address[]"
        }
      ],
      "name": "voteRank",
      "outputs": [],
      "stateMutability": "nonpayable",
      "type": "function"
    },
    {
      "inputs": [
        {
          "internalType": "address",
          "name": "_add",
          "type": "address"
        }
      ],
      "name": "voteSimple",
      "outputs": [
        {
          "internalType": "uint256",
          "name": "",
          "type": "uint256"
        }
      ],
      "stateMutability": "nonpayable",
      "type": "function"
    }
  ],
  "bytecode": "0x608060405234801561001057600080fd5b50336000806101000a81548173ffffffffffffffffffffffffffffffffffffffff021916908373ffffffffffffffffffffffffffffffffffffffff160217905550613552806100606000396000f3fe6080604052600436106101145760003560e01c80638da5cb5b116100a0578063c674f26e11610064578063c674f26e146103e7578063de5567ce14610410578063e91224691461042c578063eb87c6dc14610469578063f513f38e1461049457610114565b80638da5cb5b146102ec5780639a27192414610317578063a87430ba14610342578063b7adcf1d14610381578063ba1e9d0f146103be57610114565b80635c632b38116100e75780635c632b38146101d35780635e6a0955146102165780637eb84fa514610253578063881d97dc146102905780638ab66a90146102ac57610114565b8063128424a7146101195780632151c0a21461015657806333c57ccd1461017f5780634790a62d146101a8575b600080fd5b34801561012557600080fd5b50610140600480360381019061013b9190612404565b6104bf565b60405161014d919061250b565b60405180910390f35b34801561016257600080fd5b5061017d60048036038101906101789190612404565b6104e2565b005b34801561018b57600080fd5b506101a660048036038101906101a19190612563565b61066f565b005b3480156101b457600080fd5b506101bd6106f9565b6040516101ca9190612694565b60405180910390f35b3480156101df57600080fd5b506101fa60048036038101906101f591906126b6565b61088f565b60405161020d979695949392919061273c565b60405180910390f35b34801561022257600080fd5b5061023d6004803603810190610238919061288a565b610c11565b60405161024a91906129bf565b60405180910390f35b34801561025f57600080fd5b5061027a60048036038101906102759190612404565b610d49565b604051610287919061250b565b60405180910390f35b6102aa60048036038101906102a591906129da565b610d5d565b005b3480156102b857600080fd5b506102d360048036038101906102ce9190612a23565b610e47565b6040516102e39493929190612a50565b60405180910390f35b3480156102f857600080fd5b5061030161100f565b60405161030e9190612ab9565b60405180910390f35b34801561032357600080fd5b5061032c611033565b6040516103399190612b54565b60405180910390f35b34801561034e57600080fd5b5061036960048036038101906103649190612a23565b61124a565b60405161037893929190612b85565b60405180910390f35b34801561038d57600080fd5b506103a860048036038101906103a39190612a23565b611391565b6040516103b59190612b54565b60405180910390f35b3480156103ca57600080fd5b506103e560048036038101906103e09190612404565b6115aa565b005b3480156103f357600080fd5b5061040e60048036038101906104099190612c00565b6116d5565b005b61042a60048036038101906104259190612c6f565b611a86565b005b34801561043857600080fd5b50610453600480360381019061044e9190612a23565b611b75565b60405161046091906129bf565b60405180910390f35b34801561047557600080fd5b5061047e611cae565b60405161048b9190612ef2565b60405180910390f35b3480156104a057600080fd5b506104a9612112565b6040516104b691906129bf565b60405180910390f35b60606104da826000600185516104d59190612f43565b6116d5565b819050919050565b60001515600460003373ffffffffffffffffffffffffffffffffffffffff1673ffffffffffffffffffffffffffffffffffffffff16815260200190815260200160002060010160009054906101000a900460ff16151514610578576040517f08c379a000000000000000000000000000000000000000000000000000000000815260040161056f90612fc3565b60405180910390fd5b60005b815181101561066b578082516105919190612f43565b600360008484815181106105a8576105a7612fe3565b5b602002602001015173ffffffffffffffffffffffffffffffffffffffff1673ffffffffffffffffffffffffffffffffffffffff168152602001908152602001600020600101546105f89190613012565b6003600084848151811061060f5761060e612fe3565b5b602002602001015173ffffffffffffffffffffffffffffffffffffffff1673ffffffffffffffffffffffffffffffffffffffff16815260200190815260200160002060010181905550808061066390613046565b91505061057b565b5050565b6001828154811061068357610682612fe3565b5b9060005260206000209060080201600601819080600181540180825580915050600190039060005260206000200160009091909190916101000a81548173ffffffffffffffffffffffffffffffffffffffff021916908373ffffffffffffffffffffffffffffffffffffffff1602179055505050565b610701612147565b600460003373ffffffffffffffffffffffffffffffffffffffff1673ffffffffffffffffffffffffffffffffffffffff16815260200190815260200160002060405180606001604052908160008201805461075b906130bd565b80601f0160208091040260200160405190810160405280929190818152602001828054610787906130bd565b80156107d45780601f106107a9576101008083540402835291602001916107d4565b820191906000526020600020905b8154815290600101906020018083116107b757829003601f168201915b505050505081526020016001820160009054906101000a900460ff16151515158152602001600282018054610808906130bd565b80601f0160208091040260200160405190810160405280929190818152602001828054610834906130bd565b80156108815780601f1061085657610100808354040283529160200191610881565b820191906000526020600020905b81548152906001019060200180831161086457829003601f168201915b505050505081525050905090565b6001818154811061089f57600080fd5b90600052602060002090600802016000915090508060000154908060010180546108c8906130bd565b80601f01602080910402602001604051908101604052809291908181526020018280546108f4906130bd565b80156109415780601f1061091657610100808354040283529160200191610941565b820191906000526020600020905b81548152906001019060200180831161092457829003601f168201915b505050505090806002018054610956906130bd565b80601f0160208091040260200160405190810160405280929190818152602001828054610982906130bd565b80156109cf5780601f106109a4576101008083540402835291602001916109cf565b820191906000526020600020905b8154815290600101906020018083116109b257829003601f168201915b5050505050908060030180546109e4906130bd565b80601f0160208091040260200160405190810160405280929190818152602001828054610a10906130bd565b8015610a5d5780601f10610a3257610100808354040283529160200191610a5d565b820191906000526020600020905b815481529060010190602001808311610a4057829003601f168201915b505050505090806004018054610a72906130bd565b80601f0160208091040260200160405190810160405280929190818152602001828054610a9e906130bd565b8015610aeb5780601f10610ac057610100808354040283529160200191610aeb565b820191906000526020600020905b815481529060010190602001808311610ace57829003601f168201915b505050505090806005018054610b00906130bd565b80601f0160208091040260200160405190810160405280929190818152602001828054610b2c906130bd565b8015610b795780601f10610b4e57610100808354040283529160200191610b79565b820191906000526020600020905b815481529060010190602001808311610b5c57829003601f168201915b505050505090806007018054610b8e906130bd565b80601f0160208091040260200160405190810160405280929190818152602001828054610bba906130bd565b8015610c075780601f10610bdc57610100808354040283529160200191610c07565b820191906000526020600020905b815481529060010190602001808311610bea57829003601f168201915b5050505050905087565b600060606001604051806101000160405280610c2d6002612123565b81526020018a8152602001898152602001888152602001878152602001868152602001838152602001858152509080600181540180825580915050600190039060005260206000209060080201600090919091909150600082015181600001556020820151816001019081610ca2919061329a565b506040820151816002019081610cb8919061329a565b506060820151816003019081610cce919061329a565b506080820151816004019081610ce4919061329a565b5060a0820151816005019081610cfa919061329a565b5060c0820151816006019080519060200190610d1792919061216a565b5060e0820151816007019081610d2d919061329a565b505050610d3a6002612131565b60019150509695505050505050565b6060610d54826104bf565b50819050919050565b600060405180606001604052808381526020016000151581526020016040518060400160405280600481526020017f7573657200000000000000000000000000000000000000000000000000000000815250815250905080600460003373ffffffffffffffffffffffffffffffffffffffff1673ffffffffffffffffffffffffffffffffffffffff1681526020019081526020016000206000820151816000019081610e09919061329a565b5060208201518160010160006101000a81548160ff0219169083151502179055506040820151816002019081610e3f919061329a565b509050505050565b6003602052806000526040600020600091509050806000018054610e6a906130bd565b80601f0160208091040260200160405190810160405280929190818152602001828054610e96906130bd565b8015610ee35780601f10610eb857610100808354040283529160200191610ee3565b820191906000526020600020905b815481529060010190602001808311610ec657829003601f168201915b505050505090806001015490806002018054610efe906130bd565b80601f0160208091040260200160405190810160405280929190818152602001828054610f2a906130bd565b8015610f775780601f10610f4c57610100808354040283529160200191610f77565b820191906000526020600020905b815481529060010190602001808311610f5a57829003601f168201915b505050505090806003018054610f8c906130bd565b80601f0160208091040260200160405190810160405280929190818152602001828054610fb8906130bd565b80156110055780601f10610fda57610100808354040283529160200191611005565b820191906000526020600020905b815481529060010190602001808311610fe857829003601f168201915b5050505050905084565b60008054906101000a900473ffffffffffffffffffffffffffffffffffffffff1681565b61103b6121f4565b600360003373ffffffffffffffffffffffffffffffffffffffff1673ffffffffffffffffffffffffffffffffffffffff168152602001908152602001600020604051806080016040529081600082018054611095906130bd565b80601f01602080910402602001604051908101604052809291908181526020018280546110c1906130bd565b801561110e5780601f106110e35761010080835404028352916020019161110e565b820191906000526020600020905b8154815290600101906020018083116110f157829003601f168201915b5050505050815260200160018201548152602001600282018054611131906130bd565b80601f016020809104026020016040519081016040528092919081815260200182805461115d906130bd565b80156111aa5780601f1061117f576101008083540402835291602001916111aa565b820191906000526020600020905b81548152906001019060200180831161118d57829003601f168201915b505050505081526020016003820180546111c3906130bd565b80601f01602080910402602001604051908101604052809291908181526020018280546111ef906130bd565b801561123c5780601f106112115761010080835404028352916020019161123c565b820191906000526020600020905b81548152906001019060200180831161121f57829003601f168201915b505050505081525050905090565b600460205280600052604060002060009150905080600001805461126d906130bd565b80601f0160208091040260200160405190810160405280929190818152602001828054611299906130bd565b80156112e65780601f106112bb576101008083540402835291602001916112e6565b820191906000526020600020905b8154815290600101906020018083116112c957829003601f168201915b5050505050908060010160009054906101000a900460ff169080600201805461130e906130bd565b80601f016020809104026020016040519081016040528092919081815260200182805461133a906130bd565b80156113875780601f1061135c57610100808354040283529160200191611387565b820191906000526020600020905b81548152906001019060200180831161136a57829003601f168201915b5050505050905083565b6113996121f4565b600360008373ffffffffffffffffffffffffffffffffffffffff1673ffffffffffffffffffffffffffffffffffffffff1681526020019081526020016000206040518060800160405290816000820180546113f3906130bd565b80601f016020809104026020016040519081016040528092919081815260200182805461141f906130bd565b801561146c5780601f106114415761010080835404028352916020019161146c565b820191906000526020600020905b81548152906001019060200180831161144f57829003601f168201915b505050505081526020016001820154815260200160028201805461148f906130bd565b80601f01602080910402602001604051908101604052809291908181526020018280546114bb906130bd565b80156115085780601f106114dd57610100808354040283529160200191611508565b820191906000526020600020905b8154815290600101906020018083116114eb57829003601f168201915b50505050508152602001600382018054611521906130bd565b80601f016020809104026020016040519081016040528092919081815260200182805461154d906130bd565b801561159a5780601f1061156f5761010080835404028352916020019161159a565b820191906000526020600020905b81548152906001019060200180831161157d57829003601f168201915b5050505050815250509050919050565b60001515600460003373ffffffffffffffffffffffffffffffffffffffff1673ffffffffffffffffffffffffffffffffffffffff16815260200190815260200160002060010160009054906101000a900460ff16151514611640576040517f08c379a000000000000000000000000000000000000000000000000000000000815260040161163790612fc3565b60405180910390fd5b60005b81518110156116d1576003600083838151811061166357611662612fe3565b5b602002602001015173ffffffffffffffffffffffffffffffffffffffff1673ffffffffffffffffffffffffffffffffffffffff16815260200190815260200160002060010160008154809291906116b990613046565b919050555080806116c990613046565b915050611643565b5050565b600082905060008290508082036116ed575050611a81565b600085600286866116fe919061336c565b61170891906133de565b866117139190613448565b8151811061172457611723612fe3565b5b602002602001015190505b818313611a55575b600360008273ffffffffffffffffffffffffffffffffffffffff1673ffffffffffffffffffffffffffffffffffffffff168152602001908152602001600020600101546003600088868151811061179157611790612fe3565b5b602002602001015173ffffffffffffffffffffffffffffffffffffffff1673ffffffffffffffffffffffffffffffffffffffff1681526020019081526020016000206001015410156117f05782806117e89061348c565b935050611737565b5b6003600087848151811061180857611807612fe3565b5b602002602001015173ffffffffffffffffffffffffffffffffffffffff1673ffffffffffffffffffffffffffffffffffffffff16815260200190815260200160002060010154600360008373ffffffffffffffffffffffffffffffffffffffff1673ffffffffffffffffffffffffffffffffffffffff1681526020019081526020016000206001015410156118aa5781806118a2906134d4565b9250506117f1565b818313611a5057600360008784815181106118c8576118c7612fe3565b5b602002602001015173ffffffffffffffffffffffffffffffffffffffff1673ffffffffffffffffffffffffffffffffffffffff168152602001908152602001600020600101546003600088868151811061192557611924612fe3565b5b602002602001015173ffffffffffffffffffffffffffffffffffffffff1673ffffffffffffffffffffffffffffffffffffffff168152602001908152602001600020600101546003600089878151811061198257611981612fe3565b5b602002602001015173ffffffffffffffffffffffffffffffffffffffff1673ffffffffffffffffffffffffffffffffffffffff1681526020019081526020016000206001016000600360008b88815181106119e0576119df612fe3565b5b602002602001015173ffffffffffffffffffffffffffffffffffffffff1673ffffffffffffffffffffffffffffffffffffffff16815260200190815260200160002060010160008491905055839190505550508280611a3e9061348c565b9350508180611a4c906134d4565b9250505b61172f565b81851215611a6957611a688686846116d5565b5b83831215611a7d57611a7c8684866116d5565b5b5050505b505050565b60006040518060800160405280848152602001600081526020018381526020016040518060400160405280600981526020017f63616e6469646174650000000000000000000000000000000000000000000000815250815250905080600360003373ffffffffffffffffffffffffffffffffffffffff1673ffffffffffffffffffffffffffffffffffffffff1681526020019081526020016000206000820151816000019081611b36919061329a565b50602082015181600101556040820151816002019081611b56919061329a565b506060820151816003019081611b6c919061329a565b50905050505050565b6000801515600460003373ffffffffffffffffffffffffffffffffffffffff1673ffffffffffffffffffffffffffffffffffffffff16815260200190815260200160002060010160009054906101000a900460ff16151514611c0c576040517f08c379a0000000000000000000000000000000000000000000000000000000008152600401611c0390612fc3565b60405180910390fd5b600360008373ffffffffffffffffffffffffffffffffffffffff1673ffffffffffffffffffffffffffffffffffffffff1681526020019081526020016000206001016000815480929190611c5f90613046565b9190505550600360008373ffffffffffffffffffffffffffffffffffffffff1673ffffffffffffffffffffffffffffffffffffffff168152602001908152602001600020600101549050919050565b60606001805480602002602001604051908101604052809291908181526020016000905b8282101561210957838290600052602060002090600802016040518061010001604052908160008201548152602001600182018054611d10906130bd565b80601f0160208091040260200160405190810160405280929190818152602001828054611d3c906130bd565b8015611d895780601f10611d5e57610100808354040283529160200191611d89565b820191906000526020600020905b815481529060010190602001808311611d6c57829003601f168201915b50505050508152602001600282018054611da2906130bd565b80601f0160208091040260200160405190810160405280929190818152602001828054611dce906130bd565b8015611e1b5780601f10611df057610100808354040283529160200191611e1b565b820191906000526020600020905b815481529060010190602001808311611dfe57829003601f168201915b50505050508152602001600382018054611e34906130bd565b80601f0160208091040260200160405190810160405280929190818152602001828054611e60906130bd565b8015611ead5780601f10611e8257610100808354040283529160200191611ead565b820191906000526020600020905b815481529060010190602001808311611e9057829003601f168201915b50505050508152602001600482018054611ec6906130bd565b80601f0160208091040260200160405190810160405280929190818152602001828054611ef2906130bd565b8015611f3f5780601f10611f1457610100808354040283529160200191611f3f565b820191906000526020600020905b815481529060010190602001808311611f2257829003601f168201915b50505050508152602001600582018054611f58906130bd565b80601f0160208091040260200160405190810160405280929190818152602001828054611f84906130bd565b8015611fd15780601f10611fa657610100808354040283529160200191611fd1565b820191906000526020600020905b815481529060010190602001808311611fb457829003601f168201915b505050505081526020016006820180548060200260200160405190810160405280929190818152602001828054801561205f57602002820191906000526020600020905b8160009054906101000a900473ffffffffffffffffffffffffffffffffffffffff1673ffffffffffffffffffffffffffffffffffffffff1681526020019060010190808311612015575b50505050508152602001600782018054612078906130bd565b80601f01602080910402602001604051908101604052809291908181526020018280546120a4906130bd565b80156120f15780601f106120c6576101008083540402835291602001916120f1565b820191906000526020600020905b8154815290600101906020018083116120d457829003601f168201915b50505050508152505081526020019060010190611cd2565b50505050905090565b600061211e6002612123565b905090565b600081600001549050919050565b6001816000016000828254019250508190555050565b604051806060016040528060608152602001600015158152602001606081525090565b8280548282559060005260206000209081019282156121e3579160200282015b828111156121e25782518260006101000a81548173ffffffffffffffffffffffffffffffffffffffff021916908373ffffffffffffffffffffffffffffffffffffffff1602179055509160200191906001019061218a565b5b5090506121f0919061221c565b5090565b6040518060800160405280606081526020016000815260200160608152602001606081525090565b5b8082111561223557600081600090555060010161221d565b5090565b6000604051905090565b600080fd5b600080fd5b600080fd5b6000601f19601f8301169050919050565b7f4e487b7100000000000000000000000000000000000000000000000000000000600052604160045260246000fd5b61229b82612252565b810181811067ffffffffffffffff821117156122ba576122b9612263565b5b80604052505050565b60006122cd612239565b90506122d98282612292565b919050565b600067ffffffffffffffff8211156122f9576122f8612263565b5b602082029050602081019050919050565b600080fd5b600073ffffffffffffffffffffffffffffffffffffffff82169050919050565b600061233a8261230f565b9050919050565b61234a8161232f565b811461235557600080fd5b50565b60008135905061236781612341565b92915050565b600061238061237b846122de565b6122c3565b905080838252602082019050602084028301858111156123a3576123a261230a565b5b835b818110156123cc57806123b88882612358565b8452602084019350506020810190506123a5565b5050509392505050565b600082601f8301126123eb576123ea61224d565b5b81356123fb84826020860161236d565b91505092915050565b60006020828403121561241a57612419612243565b5b600082013567ffffffffffffffff81111561243857612437612248565b5b612444848285016123d6565b91505092915050565b600081519050919050565b600082825260208201905092915050565b6000819050602082019050919050565b6124828161232f565b82525050565b60006124948383612479565b60208301905092915050565b6000602082019050919050565b60006124b88261244d565b6124c28185612458565b93506124cd83612469565b8060005b838110156124fe5781516124e58882612488565b97506124f0836124a0565b9250506001810190506124d1565b5085935050505092915050565b6000602082019050818103600083015261252581846124ad565b905092915050565b6000819050919050565b6125408161252d565b811461254b57600080fd5b50565b60008135905061255d81612537565b92915050565b6000806040838503121561257a57612579612243565b5b60006125888582860161254e565b925050602061259985828601612358565b9150509250929050565b600081519050919050565b600082825260208201905092915050565b60005b838110156125dd5780820151818401526020810190506125c2565b60008484015250505050565b60006125f4826125a3565b6125fe81856125ae565b935061260e8185602086016125bf565b61261781612252565b840191505092915050565b60008115159050919050565b61263781612622565b82525050565b6000606083016000830151848203600086015261265a82826125e9565b915050602083015161266f602086018261262e565b506040830151848203604086015261268782826125e9565b9150508091505092915050565b600060208201905081810360008301526126ae818461263d565b905092915050565b6000602082840312156126cc576126cb612243565b5b60006126da8482850161254e565b91505092915050565b6126ec8161252d565b82525050565b600082825260208201905092915050565b600061270e826125a3565b61271881856126f2565b93506127288185602086016125bf565b61273181612252565b840191505092915050565b600060e082019050612751600083018a6126e3565b81810360208301526127638189612703565b905081810360408301526127778188612703565b9050818103606083015261278b8187612703565b9050818103608083015261279f8186612703565b905081810360a08301526127b38185612703565b905081810360c08301526127c78184612703565b905098975050505050505050565b600080fd5b600067ffffffffffffffff8211156127f5576127f4612263565b5b6127fe82612252565b9050602081019050919050565b82818337600083830152505050565b600061282d612828846127da565b6122c3565b905082815260208101848484011115612849576128486127d5565b5b61285484828561280b565b509392505050565b600082601f8301126128715761287061224d565b5b813561288184826020860161281a565b91505092915050565b60008060008060008060c087890312156128a7576128a6612243565b5b600087013567ffffffffffffffff8111156128c5576128c4612248565b5b6128d189828a0161285c565b965050602087013567ffffffffffffffff8111156128f2576128f1612248565b5b6128fe89828a0161285c565b955050604087013567ffffffffffffffff81111561291f5761291e612248565b5b61292b89828a0161285c565b945050606087013567ffffffffffffffff81111561294c5761294b612248565b5b61295889828a0161285c565b935050608087013567ffffffffffffffff81111561297957612978612248565b5b61298589828a0161285c565b92505060a087013567ffffffffffffffff8111156129a6576129a5612248565b5b6129b289828a0161285c565b9150509295509295509295565b60006020820190506129d460008301846126e3565b92915050565b6000602082840312156129f0576129ef612243565b5b600082013567ffffffffffffffff811115612a0e57612a0d612248565b5b612a1a8482850161285c565b91505092915050565b600060208284031215612a3957612a38612243565b5b6000612a4784828501612358565b91505092915050565b60006080820190508181036000830152612a6a8187612703565b9050612a7960208301866126e3565b8181036040830152612a8b8185612703565b90508181036060830152612a9f8184612703565b905095945050505050565b612ab38161232f565b82525050565b6000602082019050612ace6000830184612aaa565b92915050565b612add8161252d565b82525050565b60006080830160008301518482036000860152612b0082826125e9565b9150506020830151612b156020860182612ad4565b5060408301518482036040860152612b2d82826125e9565b91505060608301518482036060860152612b4782826125e9565b9150508091505092915050565b60006020820190508181036000830152612b6e8184612ae3565b905092915050565b612b7f81612622565b82525050565b60006060820190508181036000830152612b9f8186612703565b9050612bae6020830185612b76565b8181036040830152612bc08184612703565b9050949350505050565b6000819050919050565b612bdd81612bca565b8114612be857600080fd5b50565b600081359050612bfa81612bd4565b92915050565b600080600060608486031215612c1957612c18612243565b5b600084013567ffffffffffffffff811115612c3757612c36612248565b5b612c43868287016123d6565b9350506020612c5486828701612beb565b9250506040612c6586828701612beb565b9150509250925092565b60008060408385031215612c8657612c85612243565b5b600083013567ffffffffffffffff811115612ca457612ca3612248565b5b612cb08582860161285c565b925050602083013567ffffffffffffffff811115612cd157612cd0612248565b5b612cdd8582860161285c565b9150509250929050565b600081519050919050565b600082825260208201905092915050565b6000819050602082019050919050565b600082825260208201905092915050565b6000612d2f8261244d565b612d398185612d13565b9350612d4483612469565b8060005b83811015612d75578151612d5c8882612488565b9750612d67836124a0565b925050600181019050612d48565b5085935050505092915050565b600061010083016000830151612d9b6000860182612ad4565b5060208301518482036020860152612db382826125e9565b91505060408301518482036040860152612dcd82826125e9565b91505060608301518482036060860152612de782826125e9565b91505060808301518482036080860152612e0182826125e9565b91505060a083015184820360a0860152612e1b82826125e9565b91505060c083015184820360c0860152612e358282612d24565b91505060e083015184820360e0860152612e4f82826125e9565b9150508091505092915050565b6000612e688383612d82565b905092915050565b6000602082019050919050565b6000612e8882612ce7565b612e928185612cf2565b935083602082028501612ea485612d03565b8060005b85811015612ee05784840389528151612ec18582612e5c565b9450612ecc83612e70565b925060208a01995050600181019050612ea8565b50829750879550505050505092915050565b60006020820190508181036000830152612f0c8184612e7d565b905092915050565b7f4e487b7100000000000000000000000000000000000000000000000000000000600052601160045260246000fd5b6000612f4e8261252d565b9150612f598361252d565b9250828203905081811115612f7157612f70612f14565b5b92915050565b7f416c726561647920766f74656400000000000000000000000000000000000000600082015250565b6000612fad600d836126f2565b9150612fb882612f77565b602082019050919050565b60006020820190508181036000830152612fdc81612fa0565b9050919050565b7f4e487b7100000000000000000000000000000000000000000000000000000000600052603260045260246000fd5b600061301d8261252d565b91506130288361252d565b92508282019050808211156130405761303f612f14565b5b92915050565b60006130518261252d565b91507fffffffffffffffffffffffffffffffffffffffffffffffffffffffffffffffff820361308357613082612f14565b5b600182019050919050565b7f4e487b7100000000000000000000000000000000000000000000000000000000600052602260045260246000fd5b600060028204905060018216806130d557607f821691505b6020821081036130e8576130e761308e565b5b50919050565b60008190508160005260206000209050919050565b60006020601f8301049050919050565b600082821b905092915050565b6000600883026131507fffffffffffffffffffffffffffffffffffffffffffffffffffffffffffffffff82613113565b61315a8683613113565b95508019841693508086168417925050509392505050565b6000819050919050565b600061319761319261318d8461252d565b613172565b61252d565b9050919050565b6000819050919050565b6131b18361317c565b6131c56131bd8261319e565b848454613120565b825550505050565b600090565b6131da6131cd565b6131e58184846131a8565b505050565b5b81811015613209576131fe6000826131d2565b6001810190506131eb565b5050565b601f82111561324e5761321f816130ee565b61322884613103565b81016020851015613237578190505b61324b61324385613103565b8301826131ea565b50505b505050565b600082821c905092915050565b600061327160001984600802613253565b1980831691505092915050565b600061328a8383613260565b9150826002028217905092915050565b6132a3826125a3565b67ffffffffffffffff8111156132bc576132bb612263565b5b6132c682546130bd565b6132d182828561320d565b600060209050601f83116001811461330457600084156132f2578287015190505b6132fc858261327e565b865550613364565b601f198416613312866130ee565b60005b8281101561333a57848901518255600182019150602085019450602081019050613315565b868310156133575784890151613353601f891682613260565b8355505b6001600288020188555050505b505050505050565b600061337782612bca565b915061338283612bca565b92508282039050818112600084121682821360008512151617156133a9576133a8612f14565b5b92915050565b7f4e487b7100000000000000000000000000000000000000000000000000000000600052601260045260246000fd5b60006133e982612bca565b91506133f483612bca565b925082613404576134036133af565b5b600160000383147f80000000000000000000000000000000000000000000000000000000000000008314161561343d5761343c612f14565b5b828205905092915050565b600061345382612bca565b915061345e83612bca565b92508282019050828112156000831216838212600084121516171561348657613485612f14565b5b92915050565b600061349782612bca565b91507f7fffffffffffffffffffffffffffffffffffffffffffffffffffffffffffffff82036134c9576134c8612f14565b5b600182019050919050565b60006134df82612bca565b91507f8000000000000000000000000000000000000000000000000000000000000000820361351157613510612f14565b5b60018203905091905056fea2646970667358221220259dad7f08713949740999fbf4956f4b3b83397ce84b53ab1e18a2444a99f93b64736f6c63430008120033",
  "linkReferences": {},
  "deployedLinkReferences": {}
}