{
  "_format": "hh-sol-artifact-1",
  "contractName": "Voting",
  "sourceName": "contracts/Voting.sol",
  "abi": [
    {
      "inputs": [],
      "stateMutability": "nonpayable",
      "type": "constructor"
    },
    {
      "inputs": [
        {
          "internalType": "uint256",
          "name": "_index",
          "type": "uint256"
        },
        {
          "internalType": "address",
          "name": "candidate",
          "type": "address"
        }
      ],
      "name": "addCandidate",
      "outputs": [],
      "stateMutability": "nonpayable",
      "type": "function"
    },
    {
      "inputs": [
        {
          "internalType": "uint256",
          "name": "",
          "type": "uint256"
        }
      ],
      "name": "ballots",
      "outputs": [
        {
          "internalType": "uint256",
          "name": "id",
          "type": "uint256"
        },
        {
          "internalType": "string",
          "name": "varient",
          "type": "string"
        },
        {
          "internalType": "string",
          "name": "position",
          "type": "string"
        },
        {
          "internalType": "string",
          "name": "state",
          "type": "string"
        },
        {
          "internalType": "string",
          "name": "imageHash",
          "type": "string"
        },
        {
          "internalType": "string",
          "name": "status",
          "type": "string"
        },
        {
          "internalType": "string",
          "name": "end",
          "type": "string"
        }
      ],
      "stateMutability": "view",
      "type": "function"
    },
    {
      "inputs": [],
      "name": "candidateLogin",
      "outputs": [
        {
          "components": [
            {
              "internalType": "string",
              "name": "name",
              "type": "string"
            },
            {
              "internalType": "uint256",
              "name": "votes",
              "type": "uint256"
            },
            {
              "internalType": "string",
              "name": "hash",
              "type": "string"
            },
            {
              "internalType": "string",
              "name": "role",
              "type": "string"
            }
          ],
          "internalType": "struct Voting.Candidate",
          "name": "",
          "type": "tuple"
        }
      ],
      "stateMutability": "view",
      "type": "function"
    },
    {
      "inputs": [
        {
          "internalType": "string",
          "name": "_name",
          "type": "string"
        },
        {
          "internalType": "string",
          "name": "_hash",
          "type": "string"
        }
      ],
      "name": "candidateRegister",
      "outputs": [],
      "stateMutability": "payable",
      "type": "function"
    },
    {
      "inputs": [
        {
          "internalType": "address",
          "name": "",
          "type": "address"
        }
      ],
      "name": "candidates",
      "outputs": [
        {
          "internalType": "string",
          "name": "name",
          "type": "string"
        },
        {
          "internalType": "uint256",
          "name": "votes",
          "type": "uint256"
        },
        {
          "internalType": "string",
          "name": "hash",
          "type": "string"
        },
        {
          "internalType": "string",
          "name": "role",
          "type": "string"
        }
      ],
      "stateMutability": "view",
      "type": "function"
    },
    {
      "inputs": [
        {
          "internalType": "string",
          "name": "_varient",
          "type": "string"
        },
        {
          "internalType": "string",
          "name": "_position",
          "type": "string"
        },
        {
          "internalType": "string",
          "name": "_state",
          "type": "string"
        },
        {
          "internalType": "string",
          "name": "_hash",
          "type": "string"
        },
        {
          "internalType": "string",
          "name": "_status",
          "type": "string"
        },
        {
          "internalType": "string",
          "name": "_date",
          "type": "string"
        }
      ],
      "name": "createBallot",
      "outputs": [
        {
          "internalType": "uint256",
          "name": "",
          "type": "uint256"
        }
      ],
      "stateMutability": "nonpayable",
      "type": "function"
    },
    {
      "inputs": [],
      "name": "getBallots",
      "outputs": [
        {
          "components": [
            {
              "internalType": "uint256",
              "name": "id",
              "type": "uint256"
            },
            {
              "internalType": "string",
              "name": "varient",
              "type": "string"
            },
            {
              "internalType": "string",
              "name": "position",
              "type": "string"
            },
            {
              "internalType": "string",
              "name": "state",
              "type": "string"
            },
            {
              "internalType": "string",
              "name": "imageHash",
              "type": "string"
            },
            {
              "internalType": "string",
              "name": "status",
              "type": "string"
            },
            {
              "internalType": "address[]",
              "name": "c",
              "type": "address[]"
            },
            {
              "internalType": "string",
              "name": "end",
              "type": "string"
            }
          ],
          "internalType": "struct Voting.Ballot[]",
          "name": "",
          "type": "tuple[]"
        }
      ],
      "stateMutability": "view",
      "type": "function"
    },
    {
      "inputs": [
        {
          "internalType": "address",
          "name": "_add",
          "type": "address"
        }
      ],
      "name": "getCandidate",
      "outputs": [
        {
          "components": [
            {
              "internalType": "string",
              "name": "name",
              "type": "string"
            },
            {
              "internalType": "uint256",
              "name": "votes",
              "type": "uint256"
            },
            {
              "internalType": "string",
              "name": "hash",
              "type": "string"
            },
            {
              "internalType": "string",
              "name": "role",
              "type": "string"
            }
          ],
          "internalType": "struct Voting.Candidate",
          "name": "",
          "type": "tuple"
        }
      ],
      "stateMutability": "view",
      "type": "function"
    },
    {
      "inputs": [],
      "name": "getid",
      "outputs": [
        {
          "internalType": "uint256",
          "name": "",
          "type": "uint256"
        }
      ],
      "stateMutability": "view",
      "type": "function"
    },
    {
      "inputs": [],
      "name": "owner",
      "outputs": [
        {
          "internalType": "address",
          "name": "",
          "type": "address"
        }
      ],
      "stateMutability": "view",
      "type": "function"
    },
    {
      "inputs": [
        {
          "internalType": "address[]",
          "name": "arr",
          "type": "address[]"
        },
        {
          "internalType": "int256",
          "name": "left",
          "type": "int256"
        },
        {
          "internalType": "int256",
          "name": "right",
          "type": "int256"
        }
      ],
      "name": "quickSort",
      "outputs": [],
      "stateMutability": "nonpayable",
      "type": "function"
    },
    {
      "inputs": [
        {
          "internalType": "address[]",
          "name": "_adds",
          "type": "address[]"
        }
      ],
      "name": "result",
      "outputs": [
        {
          "internalType": "address[]",
          "name": "",
          "type": "address[]"
        }
      ],
      "stateMutability": "nonpayable",
      "type": "function"
    },
    {
      "inputs": [
        {
          "internalType": "address[]",
          "name": "data",
          "type": "address[]"
        }
      ],
      "name": "sort",
      "outputs": [
        {
          "internalType": "address[]",
          "name": "",
          "type": "address[]"
        }
      ],
      "stateMutability": "nonpayable",
      "type": "function"
    },
    {
      "inputs": [],
      "name": "userLogin",
      "outputs": [
        {
          "components": [
            {
              "internalType": "string",
              "name": "name",
              "type": "string"
            },
            {
              "internalType": "bool",
              "name": "voted",
              "type": "bool"
            },
            {
              "internalType": "string",
              "name": "role",
              "type": "string"
            }
          ],
          "internalType": "struct Voting.User",
          "name": "",
          "type": "tuple"
        }
      ],
      "stateMutability": "view",
      "type": "function"
    },
    {
      "inputs": [
        {
          "internalType": "string",
          "name": "_name",
          "type": "string"
        }
      ],
      "name": "userRegister",
      "outputs": [],
      "stateMutability": "payable",
      "type": "function"
    },
    {
      "inputs": [
        {
          "internalType": "address",
          "name": "",
          "type": "address"
        }
      ],
      "name": "users",
      "outputs": [
        {
          "internalType": "string",
          "name": "name",
          "type": "string"
        },
        {
          "internalType": "bool",
          "name": "voted",
          "type": "bool"
        },
        {
          "internalType": "string",
          "name": "role",
          "type": "string"
        }
      ],
      "stateMutability": "view",
      "type": "function"
    },
    {
      "inputs": [
        {
          "internalType": "address[]",
          "name": "_adds",
          "type": "address[]"
        }
      ],
      "name": "voteApproval",
      "outputs": [],
      "stateMutability": "nonpayable",
      "type": "function"
    },
    {
      "inputs": [
        {
          "internalType": "address[]",
          "name": "_adds",
          "type": "address[]"
        }
      ],
      "name": "voteRank",
      "outputs": [],
      "stateMutability": "nonpayable",
      "type": "function"
    },
    {
      "inputs": [
        {
          "internalType": "address",
          "name": "_add",
          "type": "address"
        }
      ],
      "name": "voteSimple",
      "outputs": [
        {
          "internalType": "uint256",
          "name": "",
          "type": "uint256"
        }
      ],
      "stateMutability": "nonpayable",
      "type": "function"
    }
  ],
  "bytecode": "0x608060405234801561001057600080fd5b50336000806101000a81548173ffffffffffffffffffffffffffffffffffffffff021916908373ffffffffffffffffffffffffffffffffffffffff16021790555061364d806100606000396000f3fe6080604052600436106101145760003560e01c80638da5cb5b116100a0578063c674f26e11610064578063c674f26e146103e7578063de5567ce14610410578063e91224691461042c578063eb87c6dc14610469578063f513f38e1461049457610114565b80638da5cb5b146102ec5780639a27192414610317578063a87430ba14610342578063b7adcf1d14610381578063ba1e9d0f146103be57610114565b80635c632b38116100e75780635c632b38146101d35780635e6a0955146102165780637eb84fa514610253578063881d97dc146102905780638ab66a90146102ac57610114565b8063128424a7146101195780632151c0a21461015657806333c57ccd1461017f5780634790a62d146101a8575b600080fd5b34801561012557600080fd5b50610140600480360381019061013b9190612493565b6104bf565b60405161014d919061259a565b60405180910390f35b34801561016257600080fd5b5061017d60048036038101906101789190612493565b6104e2565b005b34801561018b57600080fd5b506101a660048036038101906101a191906125f2565b61066f565b005b3480156101b457600080fd5b506101bd6106f9565b6040516101ca9190612723565b60405180910390f35b3480156101df57600080fd5b506101fa60048036038101906101f59190612745565b61088f565b60405161020d97969594939291906127cb565b60405180910390f35b34801561022257600080fd5b5061023d60048036038101906102389190612919565b610c11565b60405161024a9190612a4e565b60405180910390f35b34801561025f57600080fd5b5061027a60048036038101906102759190612493565b610dd8565b604051610287919061259a565b60405180910390f35b6102aa60048036038101906102a59190612a69565b610dec565b005b3480156102b857600080fd5b506102d360048036038101906102ce9190612ab2565b610ed6565b6040516102e39493929190612adf565b60405180910390f35b3480156102f857600080fd5b5061030161109e565b60405161030e9190612b48565b60405180910390f35b34801561032357600080fd5b5061032c6110c2565b6040516103399190612be3565b60405180910390f35b34801561034e57600080fd5b5061036960048036038101906103649190612ab2565b6112d9565b60405161037893929190612c14565b60405180910390f35b34801561038d57600080fd5b506103a860048036038101906103a39190612ab2565b611420565b6040516103b59190612be3565b60405180910390f35b3480156103ca57600080fd5b506103e560048036038101906103e09190612493565b611639565b005b3480156103f357600080fd5b5061040e60048036038101906104099190612c8f565b611764565b005b61042a60048036038101906104259190612cfe565b611b15565b005b34801561043857600080fd5b50610453600480360381019061044e9190612ab2565b611c04565b6040516104609190612a4e565b60405180910390f35b34801561047557600080fd5b5061047e611d3d565b60405161048b9190612f81565b60405180910390f35b3480156104a057600080fd5b506104a96121a1565b6040516104b69190612a4e565b60405180910390f35b60606104da826000600185516104d59190612fd2565b611764565b819050919050565b60001515600460003373ffffffffffffffffffffffffffffffffffffffff1673ffffffffffffffffffffffffffffffffffffffff16815260200190815260200160002060010160009054906101000a900460ff16151514610578576040517f08c379a000000000000000000000000000000000000000000000000000000000815260040161056f90613052565b60405180910390fd5b60005b815181101561066b578082516105919190612fd2565b600360008484815181106105a8576105a7613072565b5b602002602001015173ffffffffffffffffffffffffffffffffffffffff1673ffffffffffffffffffffffffffffffffffffffff168152602001908152602001600020600101546105f891906130a1565b6003600084848151811061060f5761060e613072565b5b602002602001015173ffffffffffffffffffffffffffffffffffffffff1673ffffffffffffffffffffffffffffffffffffffff168152602001908152602001600020600101819055508080610663906130d5565b91505061057b565b5050565b6001828154811061068357610682613072565b5b9060005260206000209060080201600601819080600181540180825580915050600190039060005260206000200160009091909190916101000a81548173ffffffffffffffffffffffffffffffffffffffff021916908373ffffffffffffffffffffffffffffffffffffffff1602179055505050565b6107016121d6565b600460003373ffffffffffffffffffffffffffffffffffffffff1673ffffffffffffffffffffffffffffffffffffffff16815260200190815260200160002060405180606001604052908160008201805461075b9061314c565b80601f01602080910402602001604051908101604052809291908181526020018280546107879061314c565b80156107d45780601f106107a9576101008083540402835291602001916107d4565b820191906000526020600020905b8154815290600101906020018083116107b757829003601f168201915b505050505081526020016001820160009054906101000a900460ff161515151581526020016002820180546108089061314c565b80601f01602080910402602001604051908101604052809291908181526020018280546108349061314c565b80156108815780601f1061085657610100808354040283529160200191610881565b820191906000526020600020905b81548152906001019060200180831161086457829003601f168201915b505050505081525050905090565b6001818154811061089f57600080fd5b90600052602060002090600802016000915090508060000154908060010180546108c89061314c565b80601f01602080910402602001604051908101604052809291908181526020018280546108f49061314c565b80156109415780601f1061091657610100808354040283529160200191610941565b820191906000526020600020905b81548152906001019060200180831161092457829003601f168201915b5050505050908060020180546109569061314c565b80601f01602080910402602001604051908101604052809291908181526020018280546109829061314c565b80156109cf5780601f106109a4576101008083540402835291602001916109cf565b820191906000526020600020905b8154815290600101906020018083116109b257829003601f168201915b5050505050908060030180546109e49061314c565b80601f0160208091040260200160405190810160405280929190818152602001828054610a109061314c565b8015610a5d5780601f10610a3257610100808354040283529160200191610a5d565b820191906000526020600020905b815481529060010190602001808311610a4057829003601f168201915b505050505090806004018054610a729061314c565b80601f0160208091040260200160405190810160405280929190818152602001828054610a9e9061314c565b8015610aeb5780601f10610ac057610100808354040283529160200191610aeb565b820191906000526020600020905b815481529060010190602001808311610ace57829003601f168201915b505050505090806005018054610b009061314c565b80601f0160208091040260200160405190810160405280929190818152602001828054610b2c9061314c565b8015610b795780601f10610b4e57610100808354040283529160200191610b79565b820191906000526020600020905b815481529060010190602001808311610b5c57829003601f168201915b505050505090806007018054610b8e9061314c565b80601f0160208091040260200160405190810160405280929190818152602001828054610bba9061314c565b8015610c075780601f10610bdc57610100808354040283529160200191610c07565b820191906000526020600020905b815481529060010190602001808311610bea57829003601f168201915b5050505050905087565b60008060009054906101000a900473ffffffffffffffffffffffffffffffffffffffff1673ffffffffffffffffffffffffffffffffffffffff163373ffffffffffffffffffffffffffffffffffffffff1614610ca2576040517f08c379a0000000000000000000000000000000000000000000000000000000008152600401610c99906131c9565b60405180910390fd5b60606001604051806101000160405280610cbc60026121b2565b81526020018a8152602001898152602001888152602001878152602001868152602001838152602001858152509080600181540180825580915050600190039060005260206000209060080201600090919091909150600082015181600001556020820151816001019081610d319190613395565b506040820151816002019081610d479190613395565b506060820151816003019081610d5d9190613395565b506080820151816004019081610d739190613395565b5060a0820151816005019081610d899190613395565b5060c0820151816006019080519060200190610da69291906121f9565b5060e0820151816007019081610dbc9190613395565b505050610dc960026121c0565b60019150509695505050505050565b6060610de3826104bf565b50819050919050565b600060405180606001604052808381526020016000151581526020016040518060400160405280600481526020017f7573657200000000000000000000000000000000000000000000000000000000815250815250905080600460003373ffffffffffffffffffffffffffffffffffffffff1673ffffffffffffffffffffffffffffffffffffffff1681526020019081526020016000206000820151816000019081610e989190613395565b5060208201518160010160006101000a81548160ff0219169083151502179055506040820151816002019081610ece9190613395565b509050505050565b6003602052806000526040600020600091509050806000018054610ef99061314c565b80601f0160208091040260200160405190810160405280929190818152602001828054610f259061314c565b8015610f725780601f10610f4757610100808354040283529160200191610f72565b820191906000526020600020905b815481529060010190602001808311610f5557829003601f168201915b505050505090806001015490806002018054610f8d9061314c565b80601f0160208091040260200160405190810160405280929190818152602001828054610fb99061314c565b80156110065780601f10610fdb57610100808354040283529160200191611006565b820191906000526020600020905b815481529060010190602001808311610fe957829003601f168201915b50505050509080600301805461101b9061314c565b80601f01602080910402602001604051908101604052809291908181526020018280546110479061314c565b80156110945780601f1061106957610100808354040283529160200191611094565b820191906000526020600020905b81548152906001019060200180831161107757829003601f168201915b5050505050905084565b60008054906101000a900473ffffffffffffffffffffffffffffffffffffffff1681565b6110ca612283565b600360003373ffffffffffffffffffffffffffffffffffffffff1673ffffffffffffffffffffffffffffffffffffffff1681526020019081526020016000206040518060800160405290816000820180546111249061314c565b80601f01602080910402602001604051908101604052809291908181526020018280546111509061314c565b801561119d5780601f106111725761010080835404028352916020019161119d565b820191906000526020600020905b81548152906001019060200180831161118057829003601f168201915b50505050508152602001600182015481526020016002820180546111c09061314c565b80601f01602080910402602001604051908101604052809291908181526020018280546111ec9061314c565b80156112395780601f1061120e57610100808354040283529160200191611239565b820191906000526020600020905b81548152906001019060200180831161121c57829003601f168201915b505050505081526020016003820180546112529061314c565b80601f016020809104026020016040519081016040528092919081815260200182805461127e9061314c565b80156112cb5780601f106112a0576101008083540402835291602001916112cb565b820191906000526020600020905b8154815290600101906020018083116112ae57829003601f168201915b505050505081525050905090565b60046020528060005260406000206000915090508060000180546112fc9061314c565b80601f01602080910402602001604051908101604052809291908181526020018280546113289061314c565b80156113755780601f1061134a57610100808354040283529160200191611375565b820191906000526020600020905b81548152906001019060200180831161135857829003601f168201915b5050505050908060010160009054906101000a900460ff169080600201805461139d9061314c565b80601f01602080910402602001604051908101604052809291908181526020018280546113c99061314c565b80156114165780601f106113eb57610100808354040283529160200191611416565b820191906000526020600020905b8154815290600101906020018083116113f957829003601f168201915b5050505050905083565b611428612283565b600360008373ffffffffffffffffffffffffffffffffffffffff1673ffffffffffffffffffffffffffffffffffffffff1681526020019081526020016000206040518060800160405290816000820180546114829061314c565b80601f01602080910402602001604051908101604052809291908181526020018280546114ae9061314c565b80156114fb5780601f106114d0576101008083540402835291602001916114fb565b820191906000526020600020905b8154815290600101906020018083116114de57829003601f168201915b505050505081526020016001820154815260200160028201805461151e9061314c565b80601f016020809104026020016040519081016040528092919081815260200182805461154a9061314c565b80156115975780601f1061156c57610100808354040283529160200191611597565b820191906000526020600020905b81548152906001019060200180831161157a57829003601f168201915b505050505081526020016003820180546115b09061314c565b80601f01602080910402602001604051908101604052809291908181526020018280546115dc9061314c565b80156116295780601f106115fe57610100808354040283529160200191611629565b820191906000526020600020905b81548152906001019060200180831161160c57829003601f168201915b5050505050815250509050919050565b60001515600460003373ffffffffffffffffffffffffffffffffffffffff1673ffffffffffffffffffffffffffffffffffffffff16815260200190815260200160002060010160009054906101000a900460ff161515146116cf576040517f08c379a00000000000000000000000000000000000000000000000000000000081526004016116c690613052565b60405180910390fd5b60005b815181101561176057600360008383815181106116f2576116f1613072565b5b602002602001015173ffffffffffffffffffffffffffffffffffffffff1673ffffffffffffffffffffffffffffffffffffffff1681526020019081526020016000206001016000815480929190611748906130d5565b91905055508080611758906130d5565b9150506116d2565b5050565b6000829050600082905080820361177c575050611b10565b6000856002868661178d9190613467565b61179791906134d9565b866117a29190613543565b815181106117b3576117b2613072565b5b602002602001015190505b818313611ae4575b600360008273ffffffffffffffffffffffffffffffffffffffff1673ffffffffffffffffffffffffffffffffffffffff16815260200190815260200160002060010154600360008886815181106118205761181f613072565b5b602002602001015173ffffffffffffffffffffffffffffffffffffffff1673ffffffffffffffffffffffffffffffffffffffff16815260200190815260200160002060010154101561187f57828061187790613587565b9350506117c6565b5b6003600087848151811061189757611896613072565b5b602002602001015173ffffffffffffffffffffffffffffffffffffffff1673ffffffffffffffffffffffffffffffffffffffff16815260200190815260200160002060010154600360008373ffffffffffffffffffffffffffffffffffffffff1673ffffffffffffffffffffffffffffffffffffffff168152602001908152602001600020600101541015611939578180611931906135cf565b925050611880565b818313611adf576003600087848151811061195757611956613072565b5b602002602001015173ffffffffffffffffffffffffffffffffffffffff1673ffffffffffffffffffffffffffffffffffffffff16815260200190815260200160002060010154600360008886815181106119b4576119b3613072565b5b602002602001015173ffffffffffffffffffffffffffffffffffffffff1673ffffffffffffffffffffffffffffffffffffffff1681526020019081526020016000206001015460036000898781518110611a1157611a10613072565b5b602002602001015173ffffffffffffffffffffffffffffffffffffffff1673ffffffffffffffffffffffffffffffffffffffff1681526020019081526020016000206001016000600360008b8881518110611a6f57611a6e613072565b5b602002602001015173ffffffffffffffffffffffffffffffffffffffff1673ffffffffffffffffffffffffffffffffffffffff16815260200190815260200160002060010160008491905055839190505550508280611acd90613587565b9350508180611adb906135cf565b9250505b6117be565b81851215611af857611af7868684611764565b5b83831215611b0c57611b0b868486611764565b5b5050505b505050565b60006040518060800160405280848152602001600081526020018381526020016040518060400160405280600981526020017f63616e6469646174650000000000000000000000000000000000000000000000815250815250905080600360003373ffffffffffffffffffffffffffffffffffffffff1673ffffffffffffffffffffffffffffffffffffffff1681526020019081526020016000206000820151816000019081611bc59190613395565b50602082015181600101556040820151816002019081611be59190613395565b506060820151816003019081611bfb9190613395565b50905050505050565b6000801515600460003373ffffffffffffffffffffffffffffffffffffffff1673ffffffffffffffffffffffffffffffffffffffff16815260200190815260200160002060010160009054906101000a900460ff16151514611c9b576040517f08c379a0000000000000000000000000000000000000000000000000000000008152600401611c9290613052565b60405180910390fd5b600360008373ffffffffffffffffffffffffffffffffffffffff1673ffffffffffffffffffffffffffffffffffffffff1681526020019081526020016000206001016000815480929190611cee906130d5565b9190505550600360008373ffffffffffffffffffffffffffffffffffffffff1673ffffffffffffffffffffffffffffffffffffffff168152602001908152602001600020600101549050919050565b60606001805480602002602001604051908101604052809291908181526020016000905b8282101561219857838290600052602060002090600802016040518061010001604052908160008201548152602001600182018054611d9f9061314c565b80601f0160208091040260200160405190810160405280929190818152602001828054611dcb9061314c565b8015611e185780601f10611ded57610100808354040283529160200191611e18565b820191906000526020600020905b815481529060010190602001808311611dfb57829003601f168201915b50505050508152602001600282018054611e319061314c565b80601f0160208091040260200160405190810160405280929190818152602001828054611e5d9061314c565b8015611eaa5780601f10611e7f57610100808354040283529160200191611eaa565b820191906000526020600020905b815481529060010190602001808311611e8d57829003601f168201915b50505050508152602001600382018054611ec39061314c565b80601f0160208091040260200160405190810160405280929190818152602001828054611eef9061314c565b8015611f3c5780601f10611f1157610100808354040283529160200191611f3c565b820191906000526020600020905b815481529060010190602001808311611f1f57829003601f168201915b50505050508152602001600482018054611f559061314c565b80601f0160208091040260200160405190810160405280929190818152602001828054611f819061314c565b8015611fce5780601f10611fa357610100808354040283529160200191611fce565b820191906000526020600020905b815481529060010190602001808311611fb157829003601f168201915b50505050508152602001600582018054611fe79061314c565b80601f01602080910402602001604051908101604052809291908181526020018280546120139061314c565b80156120605780601f1061203557610100808354040283529160200191612060565b820191906000526020600020905b81548152906001019060200180831161204357829003601f168201915b50505050508152602001600682018054806020026020016040519081016040528092919081815260200182805480156120ee57602002820191906000526020600020905b8160009054906101000a900473ffffffffffffffffffffffffffffffffffffffff1673ffffffffffffffffffffffffffffffffffffffff16815260200190600101908083116120a4575b505050505081526020016007820180546121079061314c565b80601f01602080910402602001604051908101604052809291908181526020018280546121339061314c565b80156121805780601f1061215557610100808354040283529160200191612180565b820191906000526020600020905b81548152906001019060200180831161216357829003601f168201915b50505050508152505081526020019060010190611d61565b50505050905090565b60006121ad60026121b2565b905090565b600081600001549050919050565b6001816000016000828254019250508190555050565b604051806060016040528060608152602001600015158152602001606081525090565b828054828255906000526020600020908101928215612272579160200282015b828111156122715782518260006101000a81548173ffffffffffffffffffffffffffffffffffffffff021916908373ffffffffffffffffffffffffffffffffffffffff16021790555091602001919060010190612219565b5b50905061227f91906122ab565b5090565b6040518060800160405280606081526020016000815260200160608152602001606081525090565b5b808211156122c45760008160009055506001016122ac565b5090565b6000604051905090565b600080fd5b600080fd5b600080fd5b6000601f19601f8301169050919050565b7f4e487b7100000000000000000000000000000000000000000000000000000000600052604160045260246000fd5b61232a826122e1565b810181811067ffffffffffffffff82111715612349576123486122f2565b5b80604052505050565b600061235c6122c8565b90506123688282612321565b919050565b600067ffffffffffffffff821115612388576123876122f2565b5b602082029050602081019050919050565b600080fd5b600073ffffffffffffffffffffffffffffffffffffffff82169050919050565b60006123c98261239e565b9050919050565b6123d9816123be565b81146123e457600080fd5b50565b6000813590506123f6816123d0565b92915050565b600061240f61240a8461236d565b612352565b9050808382526020820190506020840283018581111561243257612431612399565b5b835b8181101561245b578061244788826123e7565b845260208401935050602081019050612434565b5050509392505050565b600082601f83011261247a576124796122dc565b5b813561248a8482602086016123fc565b91505092915050565b6000602082840312156124a9576124a86122d2565b5b600082013567ffffffffffffffff8111156124c7576124c66122d7565b5b6124d384828501612465565b91505092915050565b600081519050919050565b600082825260208201905092915050565b6000819050602082019050919050565b612511816123be565b82525050565b60006125238383612508565b60208301905092915050565b6000602082019050919050565b6000612547826124dc565b61255181856124e7565b935061255c836124f8565b8060005b8381101561258d5781516125748882612517565b975061257f8361252f565b925050600181019050612560565b5085935050505092915050565b600060208201905081810360008301526125b4818461253c565b905092915050565b6000819050919050565b6125cf816125bc565b81146125da57600080fd5b50565b6000813590506125ec816125c6565b92915050565b60008060408385031215612609576126086122d2565b5b6000612617858286016125dd565b9250506020612628858286016123e7565b9150509250929050565b600081519050919050565b600082825260208201905092915050565b60005b8381101561266c578082015181840152602081019050612651565b60008484015250505050565b600061268382612632565b61268d818561263d565b935061269d81856020860161264e565b6126a6816122e1565b840191505092915050565b60008115159050919050565b6126c6816126b1565b82525050565b600060608301600083015184820360008601526126e98282612678565b91505060208301516126fe60208601826126bd565b50604083015184820360408601526127168282612678565b9150508091505092915050565b6000602082019050818103600083015261273d81846126cc565b905092915050565b60006020828403121561275b5761275a6122d2565b5b6000612769848285016125dd565b91505092915050565b61277b816125bc565b82525050565b600082825260208201905092915050565b600061279d82612632565b6127a78185612781565b93506127b781856020860161264e565b6127c0816122e1565b840191505092915050565b600060e0820190506127e0600083018a612772565b81810360208301526127f28189612792565b905081810360408301526128068188612792565b9050818103606083015261281a8187612792565b9050818103608083015261282e8186612792565b905081810360a08301526128428185612792565b905081810360c08301526128568184612792565b905098975050505050505050565b600080fd5b600067ffffffffffffffff821115612884576128836122f2565b5b61288d826122e1565b9050602081019050919050565b82818337600083830152505050565b60006128bc6128b784612869565b612352565b9050828152602081018484840111156128d8576128d7612864565b5b6128e384828561289a565b509392505050565b600082601f830112612900576128ff6122dc565b5b81356129108482602086016128a9565b91505092915050565b60008060008060008060c08789031215612936576129356122d2565b5b600087013567ffffffffffffffff811115612954576129536122d7565b5b61296089828a016128eb565b965050602087013567ffffffffffffffff811115612981576129806122d7565b5b61298d89828a016128eb565b955050604087013567ffffffffffffffff8111156129ae576129ad6122d7565b5b6129ba89828a016128eb565b945050606087013567ffffffffffffffff8111156129db576129da6122d7565b5b6129e789828a016128eb565b935050608087013567ffffffffffffffff811115612a0857612a076122d7565b5b612a1489828a016128eb565b92505060a087013567ffffffffffffffff811115612a3557612a346122d7565b5b612a4189828a016128eb565b9150509295509295509295565b6000602082019050612a636000830184612772565b92915050565b600060208284031215612a7f57612a7e6122d2565b5b600082013567ffffffffffffffff811115612a9d57612a9c6122d7565b5b612aa9848285016128eb565b91505092915050565b600060208284031215612ac857612ac76122d2565b5b6000612ad6848285016123e7565b91505092915050565b60006080820190508181036000830152612af98187612792565b9050612b086020830186612772565b8181036040830152612b1a8185612792565b90508181036060830152612b2e8184612792565b905095945050505050565b612b42816123be565b82525050565b6000602082019050612b5d6000830184612b39565b92915050565b612b6c816125bc565b82525050565b60006080830160008301518482036000860152612b8f8282612678565b9150506020830151612ba46020860182612b63565b5060408301518482036040860152612bbc8282612678565b91505060608301518482036060860152612bd68282612678565b9150508091505092915050565b60006020820190508181036000830152612bfd8184612b72565b905092915050565b612c0e816126b1565b82525050565b60006060820190508181036000830152612c2e8186612792565b9050612c3d6020830185612c05565b8181036040830152612c4f8184612792565b9050949350505050565b6000819050919050565b612c6c81612c59565b8114612c7757600080fd5b50565b600081359050612c8981612c63565b92915050565b600080600060608486031215612ca857612ca76122d2565b5b600084013567ffffffffffffffff811115612cc657612cc56122d7565b5b612cd286828701612465565b9350506020612ce386828701612c7a565b9250506040612cf486828701612c7a565b9150509250925092565b60008060408385031215612d1557612d146122d2565b5b600083013567ffffffffffffffff811115612d3357612d326122d7565b5b612d3f858286016128eb565b925050602083013567ffffffffffffffff811115612d6057612d5f6122d7565b5b612d6c858286016128eb565b9150509250929050565b600081519050919050565b600082825260208201905092915050565b6000819050602082019050919050565b600082825260208201905092915050565b6000612dbe826124dc565b612dc88185612da2565b9350612dd3836124f8565b8060005b83811015612e04578151612deb8882612517565b9750612df68361252f565b925050600181019050612dd7565b5085935050505092915050565b600061010083016000830151612e2a6000860182612b63565b5060208301518482036020860152612e428282612678565b91505060408301518482036040860152612e5c8282612678565b91505060608301518482036060860152612e768282612678565b91505060808301518482036080860152612e908282612678565b91505060a083015184820360a0860152612eaa8282612678565b91505060c083015184820360c0860152612ec48282612db3565b91505060e083015184820360e0860152612ede8282612678565b9150508091505092915050565b6000612ef78383612e11565b905092915050565b6000602082019050919050565b6000612f1782612d76565b612f218185612d81565b935083602082028501612f3385612d92565b8060005b85811015612f6f5784840389528151612f508582612eeb565b9450612f5b83612eff565b925060208a01995050600181019050612f37565b50829750879550505050505092915050565b60006020820190508181036000830152612f9b8184612f0c565b905092915050565b7f4e487b7100000000000000000000000000000000000000000000000000000000600052601160045260246000fd5b6000612fdd826125bc565b9150612fe8836125bc565b925082820390508181111561300057612fff612fa3565b5b92915050565b7f416c726561647920766f74656400000000000000000000000000000000000000600082015250565b600061303c600d83612781565b915061304782613006565b602082019050919050565b6000602082019050818103600083015261306b8161302f565b9050919050565b7f4e487b7100000000000000000000000000000000000000000000000000000000600052603260045260246000fd5b60006130ac826125bc565b91506130b7836125bc565b92508282019050808211156130cf576130ce612fa3565b5b92915050565b60006130e0826125bc565b91507fffffffffffffffffffffffffffffffffffffffffffffffffffffffffffffffff820361311257613111612fa3565b5b600182019050919050565b7f4e487b7100000000000000000000000000000000000000000000000000000000600052602260045260246000fd5b6000600282049050600182168061316457607f821691505b6020821081036131775761317661311d565b5b50919050565b7f4e6f7420746865206368616972706572736f6e00000000000000000000000000600082015250565b60006131b3601383612781565b91506131be8261317d565b602082019050919050565b600060208201905081810360008301526131e2816131a6565b9050919050565b60008190508160005260206000209050919050565b60006020601f8301049050919050565b600082821b905092915050565b60006008830261324b7fffffffffffffffffffffffffffffffffffffffffffffffffffffffffffffffff8261320e565b613255868361320e565b95508019841693508086168417925050509392505050565b6000819050919050565b600061329261328d613288846125bc565b61326d565b6125bc565b9050919050565b6000819050919050565b6132ac83613277565b6132c06132b882613299565b84845461321b565b825550505050565b600090565b6132d56132c8565b6132e08184846132a3565b505050565b5b81811015613304576132f96000826132cd565b6001810190506132e6565b5050565b601f8211156133495761331a816131e9565b613323846131fe565b81016020851015613332578190505b61334661333e856131fe565b8301826132e5565b50505b505050565b600082821c905092915050565b600061336c6000198460080261334e565b1980831691505092915050565b6000613385838361335b565b9150826002028217905092915050565b61339e82612632565b67ffffffffffffffff8111156133b7576133b66122f2565b5b6133c1825461314c565b6133cc828285613308565b600060209050601f8311600181146133ff57600084156133ed578287015190505b6133f78582613379565b86555061345f565b601f19841661340d866131e9565b60005b8281101561343557848901518255600182019150602085019450602081019050613410565b86831015613452578489015161344e601f89168261335b565b8355505b6001600288020188555050505b505050505050565b600061347282612c59565b915061347d83612c59565b92508282039050818112600084121682821360008512151617156134a4576134a3612fa3565b5b92915050565b7f4e487b7100000000000000000000000000000000000000000000000000000000600052601260045260246000fd5b60006134e482612c59565b91506134ef83612c59565b9250826134ff576134fe6134aa565b5b600160000383147f80000000000000000000000000000000000000000000000000000000000000008314161561353857613537612fa3565b5b828205905092915050565b600061354e82612c59565b915061355983612c59565b92508282019050828112156000831216838212600084121516171561358157613580612fa3565b5b92915050565b600061359282612c59565b91507f7fffffffffffffffffffffffffffffffffffffffffffffffffffffffffffffff82036135c4576135c3612fa3565b5b600182019050919050565b60006135da82612c59565b91507f8000000000000000000000000000000000000000000000000000000000000000820361360c5761360b612fa3565b5b60018203905091905056fea26469706673582212200ef797cc29a750798f9b27013196a24dfe2bb7da587f39930cf6b0b4294cfc7e64736f6c63430008120033",
  "linkReferences": {},
  "deployedLinkReferences": {}
}