{
  "_format": "hh-sol-artifact-1",
  "contractName": "Voting",
  "sourceName": "contracts/Voting.sol",
  "abi": [
    {
      "inputs": [],
      "stateMutability": "nonpayable",
      "type": "constructor"
    },
    {
      "inputs": [
        {
          "internalType": "uint256",
          "name": "_index",
          "type": "uint256"
        }
      ],
      "name": "addCandidate",
      "outputs": [],
      "stateMutability": "nonpayable",
      "type": "function"
    },
    {
      "inputs": [
        {
          "internalType": "uint256",
          "name": "",
          "type": "uint256"
        }
      ],
      "name": "ballots",
      "outputs": [
        {
          "internalType": "uint256",
          "name": "id",
          "type": "uint256"
        },
        {
          "internalType": "string",
          "name": "varient",
          "type": "string"
        },
        {
          "internalType": "string",
          "name": "position",
          "type": "string"
        },
        {
          "internalType": "string",
          "name": "state",
          "type": "string"
        },
        {
          "internalType": "string",
          "name": "imageHash",
          "type": "string"
        },
        {
          "internalType": "string",
          "name": "status",
          "type": "string"
        },
        {
          "internalType": "string",
          "name": "end",
          "type": "string"
        }
      ],
      "stateMutability": "view",
      "type": "function"
    },
    {
      "inputs": [],
      "name": "candidateLogin",
      "outputs": [
        {
          "components": [
            {
              "internalType": "string",
              "name": "name",
              "type": "string"
            },
            {
              "internalType": "uint256",
              "name": "votes",
              "type": "uint256"
            },
            {
              "internalType": "string",
              "name": "hash",
              "type": "string"
            },
            {
              "internalType": "string",
              "name": "role",
              "type": "string"
            },
            {
              "internalType": "bool",
              "name": "applied",
              "type": "bool"
            }
          ],
          "internalType": "struct Voting.Candidate",
          "name": "",
          "type": "tuple"
        }
      ],
      "stateMutability": "view",
      "type": "function"
    },
    {
      "inputs": [
        {
          "internalType": "string",
          "name": "_name",
          "type": "string"
        },
        {
          "internalType": "string",
          "name": "_hash",
          "type": "string"
        }
      ],
      "name": "candidateRegister",
      "outputs": [],
      "stateMutability": "payable",
      "type": "function"
    },
    {
      "inputs": [
        {
          "internalType": "address",
          "name": "",
          "type": "address"
        }
      ],
      "name": "candidates",
      "outputs": [
        {
          "internalType": "string",
          "name": "name",
          "type": "string"
        },
        {
          "internalType": "uint256",
          "name": "votes",
          "type": "uint256"
        },
        {
          "internalType": "string",
          "name": "hash",
          "type": "string"
        },
        {
          "internalType": "string",
          "name": "role",
          "type": "string"
        },
        {
          "internalType": "bool",
          "name": "applied",
          "type": "bool"
        }
      ],
      "stateMutability": "view",
      "type": "function"
    },
    {
      "inputs": [
        {
          "internalType": "string",
          "name": "_varient",
          "type": "string"
        },
        {
          "internalType": "string",
          "name": "_position",
          "type": "string"
        },
        {
          "internalType": "string",
          "name": "_state",
          "type": "string"
        },
        {
          "internalType": "string",
          "name": "_hash",
          "type": "string"
        },
        {
          "internalType": "string",
          "name": "_status",
          "type": "string"
        },
        {
          "internalType": "string",
          "name": "_date",
          "type": "string"
        }
      ],
      "name": "createBallot",
      "outputs": [
        {
          "internalType": "uint256",
          "name": "",
          "type": "uint256"
        }
      ],
      "stateMutability": "nonpayable",
      "type": "function"
    },
    {
      "inputs": [],
      "name": "getBallots",
      "outputs": [
        {
          "components": [
            {
              "internalType": "uint256",
              "name": "id",
              "type": "uint256"
            },
            {
              "internalType": "string",
              "name": "varient",
              "type": "string"
            },
            {
              "internalType": "string",
              "name": "position",
              "type": "string"
            },
            {
              "internalType": "string",
              "name": "state",
              "type": "string"
            },
            {
              "internalType": "string",
              "name": "imageHash",
              "type": "string"
            },
            {
              "internalType": "string",
              "name": "status",
              "type": "string"
            },
            {
              "internalType": "address[]",
              "name": "c",
              "type": "address[]"
            },
            {
              "internalType": "string",
              "name": "end",
              "type": "string"
            }
          ],
          "internalType": "struct Voting.Ballot[]",
          "name": "",
          "type": "tuple[]"
        }
      ],
      "stateMutability": "view",
      "type": "function"
    },
    {
      "inputs": [
        {
          "internalType": "address",
          "name": "_add",
          "type": "address"
        }
      ],
      "name": "getCandidate",
      "outputs": [
        {
          "components": [
            {
              "internalType": "string",
              "name": "name",
              "type": "string"
            },
            {
              "internalType": "uint256",
              "name": "votes",
              "type": "uint256"
            },
            {
              "internalType": "string",
              "name": "hash",
              "type": "string"
            },
            {
              "internalType": "string",
              "name": "role",
              "type": "string"
            },
            {
              "internalType": "bool",
              "name": "applied",
              "type": "bool"
            }
          ],
          "internalType": "struct Voting.Candidate",
          "name": "",
          "type": "tuple"
        }
      ],
      "stateMutability": "view",
      "type": "function"
    },
    {
      "inputs": [],
      "name": "getid",
      "outputs": [
        {
          "internalType": "uint256",
          "name": "",
          "type": "uint256"
        }
      ],
      "stateMutability": "view",
      "type": "function"
    },
    {
      "inputs": [],
      "name": "owner",
      "outputs": [
        {
          "internalType": "address",
          "name": "",
          "type": "address"
        }
      ],
      "stateMutability": "view",
      "type": "function"
    },
    {
      "inputs": [
        {
          "internalType": "address[]",
          "name": "arr",
          "type": "address[]"
        },
        {
          "internalType": "int256",
          "name": "left",
          "type": "int256"
        },
        {
          "internalType": "int256",
          "name": "right",
          "type": "int256"
        }
      ],
      "name": "quickSort",
      "outputs": [],
      "stateMutability": "nonpayable",
      "type": "function"
    },
    {
      "inputs": [
        {
          "internalType": "address[]",
          "name": "_adds",
          "type": "address[]"
        }
      ],
      "name": "result",
      "outputs": [
        {
          "internalType": "address[]",
          "name": "",
          "type": "address[]"
        }
      ],
      "stateMutability": "nonpayable",
      "type": "function"
    },
    {
      "inputs": [
        {
          "internalType": "address[]",
          "name": "data",
          "type": "address[]"
        }
      ],
      "name": "sort",
      "outputs": [
        {
          "internalType": "address[]",
          "name": "",
          "type": "address[]"
        }
      ],
      "stateMutability": "nonpayable",
      "type": "function"
    },
    {
      "inputs": [],
      "name": "userLogin",
      "outputs": [
        {
          "components": [
            {
              "internalType": "string",
              "name": "name",
              "type": "string"
            },
            {
              "internalType": "bool",
              "name": "voted",
              "type": "bool"
            },
            {
              "internalType": "string",
              "name": "role",
              "type": "string"
            }
          ],
          "internalType": "struct Voting.User",
          "name": "",
          "type": "tuple"
        }
      ],
      "stateMutability": "view",
      "type": "function"
    },
    {
      "inputs": [
        {
          "internalType": "string",
          "name": "_name",
          "type": "string"
        }
      ],
      "name": "userRegister",
      "outputs": [],
      "stateMutability": "payable",
      "type": "function"
    },
    {
      "inputs": [
        {
          "internalType": "address",
          "name": "",
          "type": "address"
        }
      ],
      "name": "users",
      "outputs": [
        {
          "internalType": "string",
          "name": "name",
          "type": "string"
        },
        {
          "internalType": "bool",
          "name": "voted",
          "type": "bool"
        },
        {
          "internalType": "string",
          "name": "role",
          "type": "string"
        }
      ],
      "stateMutability": "view",
      "type": "function"
    },
    {
      "inputs": [
        {
          "internalType": "address[]",
          "name": "_adds",
          "type": "address[]"
        }
      ],
      "name": "voteApproval",
      "outputs": [],
      "stateMutability": "nonpayable",
      "type": "function"
    },
    {
      "inputs": [
        {
          "internalType": "address[]",
          "name": "_adds",
          "type": "address[]"
        }
      ],
      "name": "voteRank",
      "outputs": [],
      "stateMutability": "nonpayable",
      "type": "function"
    },
    {
      "inputs": [
        {
          "internalType": "address",
          "name": "_add",
          "type": "address"
        }
      ],
      "name": "voteSimple",
      "outputs": [
        {
          "internalType": "uint256",
          "name": "",
          "type": "uint256"
        }
      ],
      "stateMutability": "nonpayable",
      "type": "function"
    }
  ],
  "bytecode": "0x608060405234801561001057600080fd5b50336000806101000a81548173ffffffffffffffffffffffffffffffffffffffff021916908373ffffffffffffffffffffffffffffffffffffffff16021790555061381c806100606000396000f3fe6080604052600436106101145760003560e01c80639a271924116100a0578063de5567ce11610064578063de5567ce146103e8578063e844d09714610404578063e91224691461042d578063eb87c6dc1461046a578063f513f38e1461049557610114565b80639a271924146102ef578063a87430ba1461031a578063b7adcf1d14610359578063ba1e9d0f14610396578063c674f26e146103bf57610114565b80635e6a0955116100e75780635e6a0955146101ed5780637eb84fa51461022a578063881d97dc146102675780638ab66a90146102835780638da5cb5b146102c457610114565b8063128424a7146101195780632151c0a2146101565780634790a62d1461017f5780635c632b38146101aa575b600080fd5b34801561012557600080fd5b50610140600480360381019061013b9190612681565b6104c0565b60405161014d9190612788565b60405180910390f35b34801561016257600080fd5b5061017d60048036038101906101789190612681565b6104e3565b005b34801561018b57600080fd5b506101946106cb565b6040516101a1919061289b565b60405180910390f35b3480156101b657600080fd5b506101d160048036038101906101cc91906128f3565b610861565b6040516101e49796959493929190612979565b60405180910390f35b3480156101f957600080fd5b50610214600480360381019061020f9190612ac7565b610be3565b6040516102219190612bfc565b60405180910390f35b34801561023657600080fd5b50610251600480360381019061024c9190612681565b610d1b565b60405161025e9190612788565b60405180910390f35b610281600480360381019061027c9190612c17565b610d2f565b005b34801561028f57600080fd5b506102aa60048036038101906102a59190612c60565b610e19565b6040516102bb959493929190612c9c565b60405180910390f35b3480156102d057600080fd5b506102d9610ff4565b6040516102e69190612d13565b60405180910390f35b3480156102fb57600080fd5b50610304611018565b6040516103119190612dc1565b60405180910390f35b34801561032657600080fd5b50610341600480360381019061033c9190612c60565b61124a565b60405161035093929190612de3565b60405180910390f35b34801561036557600080fd5b50610380600480360381019061037b9190612c60565b611391565b60405161038d9190612dc1565b60405180910390f35b3480156103a257600080fd5b506103bd60048036038101906103b89190612681565b6115c5565b005b3480156103cb57600080fd5b506103e660048036038101906103e19190612e5e565b61174b565b005b61040260048036038101906103fd9190612ecd565b611afc565b005b34801561041057600080fd5b5061042b600480360381019061042691906128f3565b611c14565b005b34801561043957600080fd5b50610454600480360381019061044f9190612c60565b611d8e565b6040516104619190612bfc565b60405180910390f35b34801561047657600080fd5b5061047f611f22565b60405161048c9190613150565b60405180910390f35b3480156104a157600080fd5b506104aa612386565b6040516104b79190612bfc565b60405180910390f35b60606104db826000600185516104d691906131a1565b61174b565b819050919050565b60001515600460003373ffffffffffffffffffffffffffffffffffffffff1673ffffffffffffffffffffffffffffffffffffffff16815260200190815260200160002060010160009054906101000a900460ff16151514610579576040517f08c379a000000000000000000000000000000000000000000000000000000000815260040161057090613221565b60405180910390fd5b60005b815181101561066c5780825161059291906131a1565b600360008484815181106105a9576105a8613241565b5b602002602001015173ffffffffffffffffffffffffffffffffffffffff1673ffffffffffffffffffffffffffffffffffffffff168152602001908152602001600020600101546105f99190613270565b600360008484815181106106105761060f613241565b5b602002602001015173ffffffffffffffffffffffffffffffffffffffff1673ffffffffffffffffffffffffffffffffffffffff168152602001908152602001600020600101819055508080610664906132a4565b91505061057c565b506001600460003373ffffffffffffffffffffffffffffffffffffffff1673ffffffffffffffffffffffffffffffffffffffff16815260200190815260200160002060010160006101000a81548160ff02191690831515021790555050565b6106d36123bb565b600460003373ffffffffffffffffffffffffffffffffffffffff1673ffffffffffffffffffffffffffffffffffffffff16815260200190815260200160002060405180606001604052908160008201805461072d9061331b565b80601f01602080910402602001604051908101604052809291908181526020018280546107599061331b565b80156107a65780601f1061077b576101008083540402835291602001916107a6565b820191906000526020600020905b81548152906001019060200180831161078957829003601f168201915b505050505081526020016001820160009054906101000a900460ff161515151581526020016002820180546107da9061331b565b80601f01602080910402602001604051908101604052809291908181526020018280546108069061331b565b80156108535780601f1061082857610100808354040283529160200191610853565b820191906000526020600020905b81548152906001019060200180831161083657829003601f168201915b505050505081525050905090565b6001818154811061087157600080fd5b906000526020600020906008020160009150905080600001549080600101805461089a9061331b565b80601f01602080910402602001604051908101604052809291908181526020018280546108c69061331b565b80156109135780601f106108e857610100808354040283529160200191610913565b820191906000526020600020905b8154815290600101906020018083116108f657829003601f168201915b5050505050908060020180546109289061331b565b80601f01602080910402602001604051908101604052809291908181526020018280546109549061331b565b80156109a15780601f10610976576101008083540402835291602001916109a1565b820191906000526020600020905b81548152906001019060200180831161098457829003601f168201915b5050505050908060030180546109b69061331b565b80601f01602080910402602001604051908101604052809291908181526020018280546109e29061331b565b8015610a2f5780601f10610a0457610100808354040283529160200191610a2f565b820191906000526020600020905b815481529060010190602001808311610a1257829003601f168201915b505050505090806004018054610a449061331b565b80601f0160208091040260200160405190810160405280929190818152602001828054610a709061331b565b8015610abd5780601f10610a9257610100808354040283529160200191610abd565b820191906000526020600020905b815481529060010190602001808311610aa057829003601f168201915b505050505090806005018054610ad29061331b565b80601f0160208091040260200160405190810160405280929190818152602001828054610afe9061331b565b8015610b4b5780601f10610b2057610100808354040283529160200191610b4b565b820191906000526020600020905b815481529060010190602001808311610b2e57829003601f168201915b505050505090806007018054610b609061331b565b80601f0160208091040260200160405190810160405280929190818152602001828054610b8c9061331b565b8015610bd95780601f10610bae57610100808354040283529160200191610bd9565b820191906000526020600020905b815481529060010190602001808311610bbc57829003601f168201915b5050505050905087565b600060606001604051806101000160405280610bff6002612397565b81526020018a8152602001898152602001888152602001878152602001868152602001838152602001858152509080600181540180825580915050600190039060005260206000209060080201600090919091909150600082015181600001556020820151816001019081610c7491906134f8565b506040820151816002019081610c8a91906134f8565b506060820151816003019081610ca091906134f8565b506080820151816004019081610cb691906134f8565b5060a0820151816005019081610ccc91906134f8565b5060c0820151816006019080519060200190610ce99291906123de565b5060e0820151816007019081610cff91906134f8565b505050610d0c60026123a5565b60019150509695505050505050565b6060610d26826104c0565b50819050919050565b600060405180606001604052808381526020016000151581526020016040518060400160405280600481526020017f7573657200000000000000000000000000000000000000000000000000000000815250815250905080600460003373ffffffffffffffffffffffffffffffffffffffff1673ffffffffffffffffffffffffffffffffffffffff1681526020019081526020016000206000820151816000019081610ddb91906134f8565b5060208201518160010160006101000a81548160ff0219169083151502179055506040820151816002019081610e1191906134f8565b509050505050565b6003602052806000526040600020600091509050806000018054610e3c9061331b565b80601f0160208091040260200160405190810160405280929190818152602001828054610e689061331b565b8015610eb55780601f10610e8a57610100808354040283529160200191610eb5565b820191906000526020600020905b815481529060010190602001808311610e9857829003601f168201915b505050505090806001015490806002018054610ed09061331b565b80601f0160208091040260200160405190810160405280929190818152602001828054610efc9061331b565b8015610f495780601f10610f1e57610100808354040283529160200191610f49565b820191906000526020600020905b815481529060010190602001808311610f2c57829003601f168201915b505050505090806003018054610f5e9061331b565b80601f0160208091040260200160405190810160405280929190818152602001828054610f8a9061331b565b8015610fd75780601f10610fac57610100808354040283529160200191610fd7565b820191906000526020600020905b815481529060010190602001808311610fba57829003601f168201915b5050505050908060040160009054906101000a900460ff16905085565b60008054906101000a900473ffffffffffffffffffffffffffffffffffffffff1681565b611020612468565b600360003373ffffffffffffffffffffffffffffffffffffffff1673ffffffffffffffffffffffffffffffffffffffff1681526020019081526020016000206040518060a001604052908160008201805461107a9061331b565b80601f01602080910402602001604051908101604052809291908181526020018280546110a69061331b565b80156110f35780601f106110c8576101008083540402835291602001916110f3565b820191906000526020600020905b8154815290600101906020018083116110d657829003601f168201915b50505050508152602001600182015481526020016002820180546111169061331b565b80601f01602080910402602001604051908101604052809291908181526020018280546111429061331b565b801561118f5780601f106111645761010080835404028352916020019161118f565b820191906000526020600020905b81548152906001019060200180831161117257829003601f168201915b505050505081526020016003820180546111a89061331b565b80601f01602080910402602001604051908101604052809291908181526020018280546111d49061331b565b80156112215780601f106111f657610100808354040283529160200191611221565b820191906000526020600020905b81548152906001019060200180831161120457829003601f168201915b505050505081526020016004820160009054906101000a900460ff161515151581525050905090565b600460205280600052604060002060009150905080600001805461126d9061331b565b80601f01602080910402602001604051908101604052809291908181526020018280546112999061331b565b80156112e65780601f106112bb576101008083540402835291602001916112e6565b820191906000526020600020905b8154815290600101906020018083116112c957829003601f168201915b5050505050908060010160009054906101000a900460ff169080600201805461130e9061331b565b80601f016020809104026020016040519081016040528092919081815260200182805461133a9061331b565b80156113875780601f1061135c57610100808354040283529160200191611387565b820191906000526020600020905b81548152906001019060200180831161136a57829003601f168201915b5050505050905083565b611399612468565b600360008373ffffffffffffffffffffffffffffffffffffffff1673ffffffffffffffffffffffffffffffffffffffff1681526020019081526020016000206040518060a00160405290816000820180546113f39061331b565b80601f016020809104026020016040519081016040528092919081815260200182805461141f9061331b565b801561146c5780601f106114415761010080835404028352916020019161146c565b820191906000526020600020905b81548152906001019060200180831161144f57829003601f168201915b505050505081526020016001820154815260200160028201805461148f9061331b565b80601f01602080910402602001604051908101604052809291908181526020018280546114bb9061331b565b80156115085780601f106114dd57610100808354040283529160200191611508565b820191906000526020600020905b8154815290600101906020018083116114eb57829003601f168201915b505050505081526020016003820180546115219061331b565b80601f016020809104026020016040519081016040528092919081815260200182805461154d9061331b565b801561159a5780601f1061156f5761010080835404028352916020019161159a565b820191906000526020600020905b81548152906001019060200180831161157d57829003601f168201915b505050505081526020016004820160009054906101000a900460ff1615151515815250509050919050565b60001515600460003373ffffffffffffffffffffffffffffffffffffffff1673ffffffffffffffffffffffffffffffffffffffff16815260200190815260200160002060010160009054906101000a900460ff1615151461165b576040517f08c379a000000000000000000000000000000000000000000000000000000000815260040161165290613221565b60405180910390fd5b60005b81518110156116ec576003600083838151811061167e5761167d613241565b5b602002602001015173ffffffffffffffffffffffffffffffffffffffff1673ffffffffffffffffffffffffffffffffffffffff16815260200190815260200160002060010160008154809291906116d4906132a4565b919050555080806116e4906132a4565b91505061165e565b506001600460003373ffffffffffffffffffffffffffffffffffffffff1673ffffffffffffffffffffffffffffffffffffffff16815260200190815260200160002060010160006101000a81548160ff02191690831515021790555050565b60008290506000829050808203611763575050611af7565b6000856002868661177491906135ca565b61177e919061363c565b8661178991906136a6565b8151811061179a57611799613241565b5b602002602001015190505b818313611acb575b600360008273ffffffffffffffffffffffffffffffffffffffff1673ffffffffffffffffffffffffffffffffffffffff168152602001908152602001600020600101546003600088868151811061180757611806613241565b5b602002602001015173ffffffffffffffffffffffffffffffffffffffff1673ffffffffffffffffffffffffffffffffffffffff16815260200190815260200160002060010154101561186657828061185e906136ea565b9350506117ad565b5b6003600087848151811061187e5761187d613241565b5b602002602001015173ffffffffffffffffffffffffffffffffffffffff1673ffffffffffffffffffffffffffffffffffffffff16815260200190815260200160002060010154600360008373ffffffffffffffffffffffffffffffffffffffff1673ffffffffffffffffffffffffffffffffffffffff16815260200190815260200160002060010154101561192057818061191890613732565b925050611867565b818313611ac6576003600087848151811061193e5761193d613241565b5b602002602001015173ffffffffffffffffffffffffffffffffffffffff1673ffffffffffffffffffffffffffffffffffffffff168152602001908152602001600020600101546003600088868151811061199b5761199a613241565b5b602002602001015173ffffffffffffffffffffffffffffffffffffffff1673ffffffffffffffffffffffffffffffffffffffff16815260200190815260200160002060010154600360008987815181106119f8576119f7613241565b5b602002602001015173ffffffffffffffffffffffffffffffffffffffff1673ffffffffffffffffffffffffffffffffffffffff1681526020019081526020016000206001016000600360008b8881518110611a5657611a55613241565b5b602002602001015173ffffffffffffffffffffffffffffffffffffffff1673ffffffffffffffffffffffffffffffffffffffff16815260200190815260200160002060010160008491905055839190505550508280611ab4906136ea565b9350508180611ac290613732565b9250505b6117a5565b81851215611adf57611ade86868461174b565b5b83831215611af357611af286848661174b565b5b5050505b505050565b60006040518060a00160405280848152602001600081526020018381526020016040518060400160405280600981526020017f63616e6469646174650000000000000000000000000000000000000000000000815250815260200160001515815250905080600360003373ffffffffffffffffffffffffffffffffffffffff1673ffffffffffffffffffffffffffffffffffffffff1681526020019081526020016000206000820151816000019081611bb591906134f8565b50602082015181600101556040820151816002019081611bd591906134f8565b506060820151816003019081611beb91906134f8565b5060808201518160040160006101000a81548160ff021916908315150217905550905050505050565b60001515600360003373ffffffffffffffffffffffffffffffffffffffff1673ffffffffffffffffffffffffffffffffffffffff16815260200190815260200160002060040160009054906101000a900460ff16151514611caa576040517f08c379a0000000000000000000000000000000000000000000000000000000008152600401611ca1906137c6565b60405180910390fd5b60018181548110611cbe57611cbd613241565b5b9060005260206000209060080201600601339080600181540180825580915050600190039060005260206000200160009091909190916101000a81548173ffffffffffffffffffffffffffffffffffffffff021916908373ffffffffffffffffffffffffffffffffffffffff1602179055506001600360003373ffffffffffffffffffffffffffffffffffffffff1673ffffffffffffffffffffffffffffffffffffffff16815260200190815260200160002060040160006101000a81548160ff02191690831515021790555050565b6000801515600460003373ffffffffffffffffffffffffffffffffffffffff1673ffffffffffffffffffffffffffffffffffffffff16815260200190815260200160002060010160009054906101000a900460ff16151514611e25576040517f08c379a0000000000000000000000000000000000000000000000000000000008152600401611e1c90613221565b60405180910390fd5b600360008373ffffffffffffffffffffffffffffffffffffffff1673ffffffffffffffffffffffffffffffffffffffff1681526020019081526020016000206001016000815480929190611e78906132a4565b91905055506001600460003373ffffffffffffffffffffffffffffffffffffffff1673ffffffffffffffffffffffffffffffffffffffff16815260200190815260200160002060010160006101000a81548160ff021916908315150217905550600360008373ffffffffffffffffffffffffffffffffffffffff1673ffffffffffffffffffffffffffffffffffffffff168152602001908152602001600020600101549050919050565b60606001805480602002602001604051908101604052809291908181526020016000905b8282101561237d57838290600052602060002090600802016040518061010001604052908160008201548152602001600182018054611f849061331b565b80601f0160208091040260200160405190810160405280929190818152602001828054611fb09061331b565b8015611ffd5780601f10611fd257610100808354040283529160200191611ffd565b820191906000526020600020905b815481529060010190602001808311611fe057829003601f168201915b505050505081526020016002820180546120169061331b565b80601f01602080910402602001604051908101604052809291908181526020018280546120429061331b565b801561208f5780601f106120645761010080835404028352916020019161208f565b820191906000526020600020905b81548152906001019060200180831161207257829003601f168201915b505050505081526020016003820180546120a89061331b565b80601f01602080910402602001604051908101604052809291908181526020018280546120d49061331b565b80156121215780601f106120f657610100808354040283529160200191612121565b820191906000526020600020905b81548152906001019060200180831161210457829003601f168201915b5050505050815260200160048201805461213a9061331b565b80601f01602080910402602001604051908101604052809291908181526020018280546121669061331b565b80156121b35780601f10612188576101008083540402835291602001916121b3565b820191906000526020600020905b81548152906001019060200180831161219657829003601f168201915b505050505081526020016005820180546121cc9061331b565b80601f01602080910402602001604051908101604052809291908181526020018280546121f89061331b565b80156122455780601f1061221a57610100808354040283529160200191612245565b820191906000526020600020905b81548152906001019060200180831161222857829003601f168201915b50505050508152602001600682018054806020026020016040519081016040528092919081815260200182805480156122d357602002820191906000526020600020905b8160009054906101000a900473ffffffffffffffffffffffffffffffffffffffff1673ffffffffffffffffffffffffffffffffffffffff1681526020019060010190808311612289575b505050505081526020016007820180546122ec9061331b565b80601f01602080910402602001604051908101604052809291908181526020018280546123189061331b565b80156123655780601f1061233a57610100808354040283529160200191612365565b820191906000526020600020905b81548152906001019060200180831161234857829003601f168201915b50505050508152505081526020019060010190611f46565b50505050905090565b60006123926002612397565b905090565b600081600001549050919050565b6001816000016000828254019250508190555050565b604051806060016040528060608152602001600015158152602001606081525090565b828054828255906000526020600020908101928215612457579160200282015b828111156124565782518260006101000a81548173ffffffffffffffffffffffffffffffffffffffff021916908373ffffffffffffffffffffffffffffffffffffffff160217905550916020019190600101906123fe565b5b5090506124649190612499565b5090565b6040518060a00160405280606081526020016000815260200160608152602001606081526020016000151581525090565b5b808211156124b257600081600090555060010161249a565b5090565b6000604051905090565b600080fd5b600080fd5b600080fd5b6000601f19601f8301169050919050565b7f4e487b7100000000000000000000000000000000000000000000000000000000600052604160045260246000fd5b612518826124cf565b810181811067ffffffffffffffff82111715612537576125366124e0565b5b80604052505050565b600061254a6124b6565b9050612556828261250f565b919050565b600067ffffffffffffffff821115612576576125756124e0565b5b602082029050602081019050919050565b600080fd5b600073ffffffffffffffffffffffffffffffffffffffff82169050919050565b60006125b78261258c565b9050919050565b6125c7816125ac565b81146125d257600080fd5b50565b6000813590506125e4816125be565b92915050565b60006125fd6125f88461255b565b612540565b905080838252602082019050602084028301858111156126205761261f612587565b5b835b81811015612649578061263588826125d5565b845260208401935050602081019050612622565b5050509392505050565b600082601f830112612668576126676124ca565b5b81356126788482602086016125ea565b91505092915050565b600060208284031215612697576126966124c0565b5b600082013567ffffffffffffffff8111156126b5576126b46124c5565b5b6126c184828501612653565b91505092915050565b600081519050919050565b600082825260208201905092915050565b6000819050602082019050919050565b6126ff816125ac565b82525050565b600061271183836126f6565b60208301905092915050565b6000602082019050919050565b6000612735826126ca565b61273f81856126d5565b935061274a836126e6565b8060005b8381101561277b5781516127628882612705565b975061276d8361271d565b92505060018101905061274e565b5085935050505092915050565b600060208201905081810360008301526127a2818461272a565b905092915050565b600081519050919050565b600082825260208201905092915050565b60005b838110156127e45780820151818401526020810190506127c9565b60008484015250505050565b60006127fb826127aa565b61280581856127b5565b93506128158185602086016127c6565b61281e816124cf565b840191505092915050565b60008115159050919050565b61283e81612829565b82525050565b6000606083016000830151848203600086015261286182826127f0565b91505060208301516128766020860182612835565b506040830151848203604086015261288e82826127f0565b9150508091505092915050565b600060208201905081810360008301526128b58184612844565b905092915050565b6000819050919050565b6128d0816128bd565b81146128db57600080fd5b50565b6000813590506128ed816128c7565b92915050565b600060208284031215612909576129086124c0565b5b6000612917848285016128de565b91505092915050565b612929816128bd565b82525050565b600082825260208201905092915050565b600061294b826127aa565b612955818561292f565b93506129658185602086016127c6565b61296e816124cf565b840191505092915050565b600060e08201905061298e600083018a612920565b81810360208301526129a08189612940565b905081810360408301526129b48188612940565b905081810360608301526129c88187612940565b905081810360808301526129dc8186612940565b905081810360a08301526129f08185612940565b905081810360c0830152612a048184612940565b905098975050505050505050565b600080fd5b600067ffffffffffffffff821115612a3257612a316124e0565b5b612a3b826124cf565b9050602081019050919050565b82818337600083830152505050565b6000612a6a612a6584612a17565b612540565b905082815260208101848484011115612a8657612a85612a12565b5b612a91848285612a48565b509392505050565b600082601f830112612aae57612aad6124ca565b5b8135612abe848260208601612a57565b91505092915050565b60008060008060008060c08789031215612ae457612ae36124c0565b5b600087013567ffffffffffffffff811115612b0257612b016124c5565b5b612b0e89828a01612a99565b965050602087013567ffffffffffffffff811115612b2f57612b2e6124c5565b5b612b3b89828a01612a99565b955050604087013567ffffffffffffffff811115612b5c57612b5b6124c5565b5b612b6889828a01612a99565b945050606087013567ffffffffffffffff811115612b8957612b886124c5565b5b612b9589828a01612a99565b935050608087013567ffffffffffffffff811115612bb657612bb56124c5565b5b612bc289828a01612a99565b92505060a087013567ffffffffffffffff811115612be357612be26124c5565b5b612bef89828a01612a99565b9150509295509295509295565b6000602082019050612c116000830184612920565b92915050565b600060208284031215612c2d57612c2c6124c0565b5b600082013567ffffffffffffffff811115612c4b57612c4a6124c5565b5b612c5784828501612a99565b91505092915050565b600060208284031215612c7657612c756124c0565b5b6000612c84848285016125d5565b91505092915050565b612c9681612829565b82525050565b600060a0820190508181036000830152612cb68188612940565b9050612cc56020830187612920565b8181036040830152612cd78186612940565b90508181036060830152612ceb8185612940565b9050612cfa6080830184612c8d565b9695505050505050565b612d0d816125ac565b82525050565b6000602082019050612d286000830184612d04565b92915050565b612d37816128bd565b82525050565b600060a0830160008301518482036000860152612d5a82826127f0565b9150506020830151612d6f6020860182612d2e565b5060408301518482036040860152612d8782826127f0565b91505060608301518482036060860152612da182826127f0565b9150506080830151612db66080860182612835565b508091505092915050565b60006020820190508181036000830152612ddb8184612d3d565b905092915050565b60006060820190508181036000830152612dfd8186612940565b9050612e0c6020830185612c8d565b8181036040830152612e1e8184612940565b9050949350505050565b6000819050919050565b612e3b81612e28565b8114612e4657600080fd5b50565b600081359050612e5881612e32565b92915050565b600080600060608486031215612e7757612e766124c0565b5b600084013567ffffffffffffffff811115612e9557612e946124c5565b5b612ea186828701612653565b9350506020612eb286828701612e49565b9250506040612ec386828701612e49565b9150509250925092565b60008060408385031215612ee457612ee36124c0565b5b600083013567ffffffffffffffff811115612f0257612f016124c5565b5b612f0e85828601612a99565b925050602083013567ffffffffffffffff811115612f2f57612f2e6124c5565b5b612f3b85828601612a99565b9150509250929050565b600081519050919050565b600082825260208201905092915050565b6000819050602082019050919050565b600082825260208201905092915050565b6000612f8d826126ca565b612f978185612f71565b9350612fa2836126e6565b8060005b83811015612fd3578151612fba8882612705565b9750612fc58361271d565b925050600181019050612fa6565b5085935050505092915050565b600061010083016000830151612ff96000860182612d2e565b506020830151848203602086015261301182826127f0565b9150506040830151848203604086015261302b82826127f0565b9150506060830151848203606086015261304582826127f0565b9150506080830151848203608086015261305f82826127f0565b91505060a083015184820360a086015261307982826127f0565b91505060c083015184820360c08601526130938282612f82565b91505060e083015184820360e08601526130ad82826127f0565b9150508091505092915050565b60006130c68383612fe0565b905092915050565b6000602082019050919050565b60006130e682612f45565b6130f08185612f50565b93508360208202850161310285612f61565b8060005b8581101561313e578484038952815161311f85826130ba565b945061312a836130ce565b925060208a01995050600181019050613106565b50829750879550505050505092915050565b6000602082019050818103600083015261316a81846130db565b905092915050565b7f4e487b7100000000000000000000000000000000000000000000000000000000600052601160045260246000fd5b60006131ac826128bd565b91506131b7836128bd565b92508282039050818111156131cf576131ce613172565b5b92915050565b7f416c726561647920766f74656400000000000000000000000000000000000000600082015250565b600061320b600d8361292f565b9150613216826131d5565b602082019050919050565b6000602082019050818103600083015261323a816131fe565b9050919050565b7f4e487b7100000000000000000000000000000000000000000000000000000000600052603260045260246000fd5b600061327b826128bd565b9150613286836128bd565b925082820190508082111561329e5761329d613172565b5b92915050565b60006132af826128bd565b91507fffffffffffffffffffffffffffffffffffffffffffffffffffffffffffffffff82036132e1576132e0613172565b5b600182019050919050565b7f4e487b7100000000000000000000000000000000000000000000000000000000600052602260045260246000fd5b6000600282049050600182168061333357607f821691505b602082108103613346576133456132ec565b5b50919050565b60008190508160005260206000209050919050565b60006020601f8301049050919050565b600082821b905092915050565b6000600883026133ae7fffffffffffffffffffffffffffffffffffffffffffffffffffffffffffffffff82613371565b6133b88683613371565b95508019841693508086168417925050509392505050565b6000819050919050565b60006133f56133f06133eb846128bd565b6133d0565b6128bd565b9050919050565b6000819050919050565b61340f836133da565b61342361341b826133fc565b84845461337e565b825550505050565b600090565b61343861342b565b613443818484613406565b505050565b5b818110156134675761345c600082613430565b600181019050613449565b5050565b601f8211156134ac5761347d8161334c565b61348684613361565b81016020851015613495578190505b6134a96134a185613361565b830182613448565b50505b505050565b600082821c905092915050565b60006134cf600019846008026134b1565b1980831691505092915050565b60006134e883836134be565b9150826002028217905092915050565b613501826127aa565b67ffffffffffffffff81111561351a576135196124e0565b5b613524825461331b565b61352f82828561346b565b600060209050601f8311600181146135625760008415613550578287015190505b61355a85826134dc565b8655506135c2565b601f1984166135708661334c565b60005b8281101561359857848901518255600182019150602085019450602081019050613573565b868310156135b557848901516135b1601f8916826134be565b8355505b6001600288020188555050505b505050505050565b60006135d582612e28565b91506135e083612e28565b925082820390508181126000841216828213600085121516171561360757613606613172565b5b92915050565b7f4e487b7100000000000000000000000000000000000000000000000000000000600052601260045260246000fd5b600061364782612e28565b915061365283612e28565b9250826136625761366161360d565b5b600160000383147f80000000000000000000000000000000000000000000000000000000000000008314161561369b5761369a613172565b5b828205905092915050565b60006136b182612e28565b91506136bc83612e28565b9250828201905082811215600083121683821260008412151617156136e4576136e3613172565b5b92915050565b60006136f582612e28565b91507f7fffffffffffffffffffffffffffffffffffffffffffffffffffffffffffffff820361372757613726613172565b5b600182019050919050565b600061373d82612e28565b91507f8000000000000000000000000000000000000000000000000000000000000000820361376f5761376e613172565b5b600182039050919050565b7f416c7265616479204170706c6965640000000000000000000000000000000000600082015250565b60006137b0600f8361292f565b91506137bb8261377a565b602082019050919050565b600060208201905081810360008301526137df816137a3565b905091905056fea2646970667358221220028e6ab4ef8d246409d0676470fe62c8b13cad654b42afaee25ce377e463644664736f6c63430008120033",
  "linkReferences": {},
  "deployedLinkReferences": {}
}